{"contracts/SmartChefInitializable.sol":{"SmartChefInitializable":{"abi":[{"inputs":[],"stateMutability":"nonpayable","type":"constructor"},{"anonymous":false,"inputs":[{"indexed":true,"internalType":"address","name":"user","type":"address"},{"indexed":false,"internalType":"uint256","name":"amount","type":"uint256"}],"name":"Deposit","type":"event"},{"anonymous":false,"inputs":[{"indexed":true,"internalType":"address","name":"user","type":"address"},{"indexed":false,"internalType":"uint256","name":"amount","type":"uint256"}],"name":"EmergencyWithdraw","type":"event"},{"anonymous":false,"inputs":[{"indexed":false,"internalType":"uint256","name":"poolLimitPerUser","type":"uint256"}],"name":"NewPoolLimit","type":"event"},{"anonymous":false,"inputs":[{"indexed":false,"internalType":"uint256","name":"rewardPerBlock","type":"uint256"}],"name":"NewRewardPerBlock","type":"event"},{"anonymous":false,"inputs":[{"indexed":false,"internalType":"uint256","name":"startBlock","type":"uint256"},{"indexed":false,"internalType":"uint256","name":"endBlock","type":"uint256"}],"name":"NewStartAndEndBlocks","type":"event"},{"anonymous":false,"inputs":[{"indexed":true,"internalType":"address","name":"previousOwner","type":"address"},{"indexed":true,"internalType":"address","name":"newOwner","type":"address"}],"name":"OwnershipTransferred","type":"event"},{"anonymous":false,"inputs":[{"indexed":false,"internalType":"uint256","name":"blockNumber","type":"uint256"}],"name":"RewardsStop","type":"event"},{"anonymous":false,"inputs":[{"indexed":true,"internalType":"address","name":"token","type":"address"},{"indexed":false,"internalType":"uint256","name":"amount","type":"uint256"}],"name":"TokenRecovery","type":"event"},{"anonymous":false,"inputs":[{"indexed":true,"internalType":"address","name":"user","type":"address"},{"indexed":false,"internalType":"uint256","name":"amount","type":"uint256"}],"name":"Withdraw","type":"event"},{"inputs":[],"name":"PRECISION_FACTOR","outputs":[{"internalType":"uint256","name":"","type":"uint256"}],"stateMutability":"view","type":"function"},{"inputs":[],"name":"SMART_CHEF_FACTORY","outputs":[{"internalType":"address","name":"","type":"address"}],"stateMutability":"view","type":"function"},{"inputs":[],"name":"accTokenPerShare","outputs":[{"internalType":"uint256","name":"","type":"uint256"}],"stateMutability":"view","type":"function"},{"inputs":[],"name":"bonusEndBlock","outputs":[{"internalType":"uint256","name":"","type":"uint256"}],"stateMutability":"view","type":"function"},{"inputs":[{"internalType":"uint256","name":"_amount","type":"uint256"}],"name":"deposit","outputs":[],"stateMutability":"nonpayable","type":"function"},{"inputs":[{"internalType":"uint256","name":"_amount","type":"uint256"}],"name":"emergencyRewardWithdraw","outputs":[],"stateMutability":"nonpayable","type":"function"},{"inputs":[],"name":"emergencyWithdraw","outputs":[],"stateMutability":"nonpayable","type":"function"},{"inputs":[],"name":"hasUserLimit","outputs":[{"internalType":"bool","name":"","type":"bool"}],"stateMutability":"view","type":"function"},{"inputs":[{"internalType":"contract IERC20Metadata","name":"_stakedToken","type":"address"},{"internalType":"contract IERC20Metadata","name":"_rewardToken","type":"address"},{"internalType":"uint256","name":"_rewardPerBlock","type":"uint256"},{"internalType":"uint256","name":"_startBlock","type":"uint256"},{"internalType":"uint256","name":"_bonusEndBlock","type":"uint256"},{"internalType":"uint256","name":"_poolLimitPerUser","type":"uint256"},{"internalType":"uint256","name":"_numberBlocksForUserLimit","type":"uint256"},{"internalType":"address","name":"_admin","type":"address"}],"name":"initialize","outputs":[],"stateMutability":"nonpayable","type":"function"},{"inputs":[],"name":"isInitialized","outputs":[{"internalType":"bool","name":"","type":"bool"}],"stateMutability":"view","type":"function"},{"inputs":[],"name":"lastRewardBlock","outputs":[{"internalType":"uint256","name":"","type":"uint256"}],"stateMutability":"view","type":"function"},{"inputs":[],"name":"numberBlocksForUserLimit","outputs":[{"internalType":"uint256","name":"","type":"uint256"}],"stateMutability":"view","type":"function"},{"inputs":[],"name":"owner","outputs":[{"internalType":"address","name":"","type":"address"}],"stateMutability":"view","type":"function"},{"inputs":[{"internalType":"address","name":"_user","type":"address"}],"name":"pendingReward","outputs":[{"internalType":"uint256","name":"","type":"uint256"}],"stateMutability":"view","type":"function"},{"inputs":[],"name":"poolLimitPerUser","outputs":[{"internalType":"uint256","name":"","type":"uint256"}],"stateMutability":"view","type":"function"},{"inputs":[{"internalType":"address","name":"_token","type":"address"}],"name":"recoverToken","outputs":[],"stateMutability":"nonpayable","type":"function"},{"inputs":[],"name":"renounceOwnership","outputs":[],"stateMutability":"nonpayable","type":"function"},{"inputs":[],"name":"rewardPerBlock","outputs":[{"internalType":"uint256","name":"","type":"uint256"}],"stateMutability":"view","type":"function"},{"inputs":[],"name":"rewardToken","outputs":[{"internalType":"contract IERC20Metadata","name":"","type":"address"}],"stateMutability":"view","type":"function"},{"inputs":[],"name":"stakedToken","outputs":[{"internalType":"contract IERC20Metadata","name":"","type":"address"}],"stateMutability":"view","type":"function"},{"inputs":[],"name":"stakedTokenAmount","outputs":[{"internalType":"uint256","name":"","type":"uint256"}],"stateMutability":"view","type":"function"},{"inputs":[],"name":"startBlock","outputs":[{"internalType":"uint256","name":"","type":"uint256"}],"stateMutability":"view","type":"function"},{"inputs":[],"name":"stopReward","outputs":[],"stateMutability":"nonpayable","type":"function"},{"inputs":[{"internalType":"address","name":"newOwner","type":"address"}],"name":"transferOwnership","outputs":[],"stateMutability":"nonpayable","type":"function"},{"inputs":[{"internalType":"bool","name":"_userLimit","type":"bool"},{"internalType":"uint256","name":"_poolLimitPerUser","type":"uint256"}],"name":"updatePoolLimitPerUser","outputs":[],"stateMutability":"nonpayable","type":"function"},{"inputs":[{"internalType":"uint256","name":"_rewardPerBlock","type":"uint256"}],"name":"updateRewardPerBlock","outputs":[],"stateMutability":"nonpayable","type":"function"},{"inputs":[{"internalType":"uint256","name":"_startBlock","type":"uint256"},{"internalType":"uint256","name":"_bonusEndBlock","type":"uint256"}],"name":"updateStartAndEndBlocks","outputs":[],"stateMutability":"nonpayable","type":"function"},{"inputs":[{"internalType":"address","name":"","type":"address"}],"name":"userInfo","outputs":[{"internalType":"uint256","name":"amount","type":"uint256"},{"internalType":"uint256","name":"rewardDebt","type":"uint256"}],"stateMutability":"view","type":"function"},{"inputs":[],"name":"userLimit","outputs":[{"internalType":"bool","name":"","type":"bool"}],"stateMutability":"view","type":"function"},{"inputs":[{"internalType":"uint256","name":"_amount","type":"uint256"}],"name":"withdraw","outputs":[],"stateMutability":"nonpayable","type":"function"}],"evm":{"bytecode":{"linkReferences":{},"object":"60a06040523480156200001157600080fd5b5062000032620000266200007360201b60201c565b6200007b60201b60201c565b600180819055503373ffffffffffffffffffffffffffffffffffffffff1660808173ffffffffffffffffffffffffffffffffffffffff16815250506200013f565b600033905090565b60008060009054906101000a900473ffffffffffffffffffffffffffffffffffffffff169050816000806101000a81548173ffffffffffffffffffffffffffffffffffffffff021916908373ffffffffffffffffffffffffffffffffffffffff1602179055508173ffffffffffffffffffffffffffffffffffffffff168173ffffffffffffffffffffffffffffffffffffffff167f8be0079c531659141344cd1fd0a4f28419497f9722a3daafe3b4186f6b6457e060405160405180910390a35050565b6080516130606200016260003960008181610643015261119a01526130606000f3fe608060405234801561001057600080fd5b50600436106101da5760003560e01c80638f66291511610104578063b6b55f25116100a2578063db2e21bc11610071578063db2e21bc146104c6578063f2fde38b146104d0578063f40f0f52146104ec578063f7c618c11461051c576101da565b8063b6b55f2514610450578063bd6171911461046c578063cc7a262e1461048a578063ccd34cd5146104a8576101da565b80639be65a60116100de5780639be65a60146103dc5780639c367bc2146103f8578063a0b4090514610416578063a9f8d18114610432576101da565b80638f6629151461038457806392e8990e146103a25780639513997f146103c0576101da565b806348cd4cb11161017c57806380dc06721161014b57806380dc0672146103205780638ad1071b1461032a5780638ae39cac146103485780638da5cb5b14610366576101da565b806348cd4cb1146102bc5780634a7c01ec146102da57806366fe9f8a146102f8578063715018a614610316576101da565b80632aa2c381116101b85780632aa2c3811461024a5780632e1a7d4d146102665780633279beab14610282578063392e53cd1461029e576101da565b806301f8a976146101df5780631959a002146101fb5780631aed65531461022c575b600080fd5b6101f960048036038101906101f49190611e86565b61053a565b005b61021560048036038101906102109190611f11565b6105c7565b604051610223929190611f4d565b60405180910390f35b6102346105eb565b6040516102419190611f76565b60405180910390f35b610264600480360381019061025f9190611fcf565b6105f1565b005b610280600480360381019061027b9190611e86565b6108cb565b005b61029c60048036038101906102979190611e86565b610a57565b005b6102a6610a6b565b6040516102b391906120a0565b60405180910390f35b6102c4610a7e565b6040516102d19190611f76565b60405180910390f35b6102e2610a84565b6040516102ef91906120a0565b60405180910390f35b610300610a97565b60405161030d9190611f76565b60405180910390f35b61031e610a9d565b005b610328610ab1565b005b610332610ac2565b60405161033f9190611f76565b60405180910390f35b610350610ac8565b60405161035d9190611f76565b60405180910390f35b61036e610ace565b60405161037b91906120ca565b60405180910390f35b61038c610af7565b6040516103999190611f76565b60405180910390f35b6103aa610afd565b6040516103b791906120a0565b60405180910390f35b6103da60048036038101906103d591906120e5565b610b40565b005b6103f660048036038101906103f19190611f11565b610c64565b005b610400610ea0565b60405161040d9190611f76565b60405180910390f35b610430600480360381019061042b9190612151565b610ea6565b005b61043a610fb3565b6040516104479190611f76565b60405180910390f35b61046a60048036038101906104659190611e86565b610fb9565b005b610474611198565b60405161048191906120ca565b60405180910390f35b6104926111bc565b60405161049f91906121f0565b60405180910390f35b6104b06111e2565b6040516104bd9190611f76565b60405180910390f35b6104ce6111e8565b005b6104ea60048036038101906104e59190611f11565b6112c1565b005b61050660048036038101906105019190611f11565b611344565b6040516105139190611f76565b60405180910390f35b61052461145d565b60405161053191906121f0565b60405180910390f35b610542611483565b6005544310610586576040517f08c379a000000000000000000000000000000000000000000000000000000000815260040161057d90612268565b60405180910390fd5b806009819055507f0c4d677eef92893ac7ec52faf8140fc6c851ab4736302b4f3a89dfb20696a0df816040516105bc9190611f76565b60405180910390a150565b600e6020528060005260406000206000915090508060000154908060010154905082565b60045481565b600260019054906101000a900460ff1615610641576040517f08c379a0000000000000000000000000000000000000000000000000000000008152600401610638906122d4565b60405180910390fd5b7f000000000000000000000000000000000000000000000000000000000000000073ffffffffffffffffffffffffffffffffffffffff163373ffffffffffffffffffffffffffffffffffffffff16146106cf576040517f08c379a00000000000000000000000000000000000000000000000000000000081526004016106c690612340565b60405180910390fd5b6001600260016101000a81548160ff02191690831515021790555087600c60006101000a81548173ffffffffffffffffffffffffffffffffffffffff021916908373ffffffffffffffffffffffffffffffffffffffff16021790555086600b60006101000a81548173ffffffffffffffffffffffffffffffffffffffff021916908373ffffffffffffffffffffffffffffffffffffffff16021790555085600981905550846005819055508360048190555060008311156107b4576001600260006101000a81548160ff02191690831515021790555082600781905550816008819055505b6000600b60009054906101000a900473ffffffffffffffffffffffffffffffffffffffff1673ffffffffffffffffffffffffffffffffffffffff1663313ce5676040518163ffffffff1660e01b8152600401602060405180830381865afa158015610823573d6000803e3d6000fd5b505050506040513d601f19601f820116820180604052508101906108479190612399565b60ff169050601e811061088f576040517f08c379a000000000000000000000000000000000000000000000000000000000815260040161088690612412565b60405180910390fd5b80601e61089c9190612461565b600a6108a891906125c8565b600a819055506005546006819055506108c0826112c1565b505050505050505050565b6108d3611501565b6000600e60003373ffffffffffffffffffffffffffffffffffffffff1673ffffffffffffffffffffffffffffffffffffffff1681526020019081526020016000209050818160000154101561095d576040517f08c379a00000000000000000000000000000000000000000000000000000000081526004016109549061265f565b60405180910390fd5b610965611550565b60008160010154600a546003548460000154610981919061267f565b61098b91906126f0565b6109959190612461565b905060008311156109c2578282600001546109b09190612461565b82600001819055506109c1836115cc565b5b60008111156109d5576109d481611630565b5b600a5460035483600001546109ea919061267f565b6109f491906126f0565b82600101819055503373ffffffffffffffffffffffffffffffffffffffff167f884edad9ce6fa2440d8a54cc123490eb96d2768479d49ff9c7366125a942436484604051610a429190611f76565b60405180910390a25050610a546117d8565b50565b610a5f611483565b610a6881611630565b50565b600260019054906101000a900460ff1681565b60055481565b600260009054906101000a900460ff1681565b60075481565b610aa5611483565b610aaf60006117e1565b565b610ab9611483565b43600481905550565b60085481565b60095481565b60008060009054906101000a900473ffffffffffffffffffffffffffffffffffffffff16905090565b60035481565b6000600260009054906101000a900460ff161580610b2a5750600854600554610b269190612721565b4310155b15610b385760009050610b3d565b600190505b90565b610b48611483565b6005544310610b8c576040517f08c379a0000000000000000000000000000000000000000000000000000000008152600401610b8390612268565b60405180910390fd5b808210610bce576040517f08c379a0000000000000000000000000000000000000000000000000000000008152600401610bc5906127c7565b60405180910390fd5b814310610c10576040517f08c379a0000000000000000000000000000000000000000000000000000000008152600401610c0790612859565b60405180910390fd5b81600581905550806004819055506005546006819055507f7cd0ab87d19036f3dfadadb232c78aa4879dda3f0c994a9d637532410ee2ce068282604051610c58929190611f4d565b60405180910390a15050565b610c6c611483565b600b60009054906101000a900473ffffffffffffffffffffffffffffffffffffffff1673ffffffffffffffffffffffffffffffffffffffff168173ffffffffffffffffffffffffffffffffffffffff1603610cfc576040517f08c379a0000000000000000000000000000000000000000000000000000000008152600401610cf3906128eb565b60405180910390fd5b60008173ffffffffffffffffffffffffffffffffffffffff166370a08231306040518263ffffffff1660e01b8152600401610d3791906120ca565b602060405180830381865afa158015610d54573d6000803e3d6000fd5b505050506040513d601f19601f82011682018060405250810190610d789190612920565b9050600c60009054906101000a900473ffffffffffffffffffffffffffffffffffffffff1673ffffffffffffffffffffffffffffffffffffffff168273ffffffffffffffffffffffffffffffffffffffff1603610de057600d5481610ddd9190612461565b90505b60008103610e23576040517f08c379a0000000000000000000000000000000000000000000000000000000008152600401610e1a906129bf565b60405180910390fd5b610e4e33828473ffffffffffffffffffffffffffffffffffffffff166118a59092919063ffffffff16565b8173ffffffffffffffffffffffffffffffffffffffff167f14f11966a996e0629572e51064726d2057a80fbd34efc066682c06a71dbb6e9882604051610e949190611f76565b60405180910390a25050565b600d5481565b610eae611483565b600260009054906101000a900460ff16610efd576040517f08c379a0000000000000000000000000000000000000000000000000000000008152600401610ef490612a2b565b60405180910390fd5b8115610f53576007548111610f47576040517f08c379a0000000000000000000000000000000000000000000000000000000008152600401610f3e90612a97565b60405180910390fd5b80600781905550610f76565b81600260006101000a81548160ff02191690831515021790555060006007819055505b7f241f67ee5f41b7a5cabf911367329be7215900f602ebfc47f89dce2a6bcd847c600754604051610fa79190611f76565b60405180910390a15050565b60065481565b610fc1611501565b6000600e60003373ffffffffffffffffffffffffffffffffffffffff1673ffffffffffffffffffffffffffffffffffffffff168152602001908152602001600020905061100c610afd565b600260006101000a81548160ff021916908315150217905550600260009054906101000a900460ff161580611052575060075481600001548361104f9190612721565b11155b611091576040517f08c379a000000000000000000000000000000000000000000000000000000000815260040161108890612b03565b60405180910390fd5b611099611550565b6000816000015411156110ed5760008160010154600a5460035484600001546110c2919061267f565b6110cc91906126f0565b6110d69190612461565b905060008111156110eb576110ea81611630565b5b505b6000821115611117576110ff8261192b565b816000015461110e9190612721565b81600001819055505b600a54600354826000015461112c919061267f565b61113691906126f0565b81600101819055503373ffffffffffffffffffffffffffffffffffffffff167fe1fffcc4923d04b559f4d29a8bfc6cda04eb5b0d3c460751c2402c5c5cc9109c836040516111849190611f76565b60405180910390a2506111956117d8565b50565b7f000000000000000000000000000000000000000000000000000000000000000081565b600c60009054906101000a900473ffffffffffffffffffffffffffffffffffffffff1681565b600a5481565b6111f0611501565b6000600e60003373ffffffffffffffffffffffffffffffffffffffff1673ffffffffffffffffffffffffffffffffffffffff16815260200190815260200160002090506000816000015490506000826000018190555060008260010181905550600081111561126357611262816115cc565b5b3373ffffffffffffffffffffffffffffffffffffffff167f5fafa99d0643513820be26656b45130b01e1c03062e1266bf36f88cbd3bd969583600001546040516112ad9190611f76565b60405180910390a250506112bf6117d8565b565b6112c9611483565b600073ffffffffffffffffffffffffffffffffffffffff168173ffffffffffffffffffffffffffffffffffffffff1603611338576040517f08c379a000000000000000000000000000000000000000000000000000000000815260040161132f90612b95565b60405180910390fd5b611341816117e1565b50565b600080600e60008473ffffffffffffffffffffffffffffffffffffffff1673ffffffffffffffffffffffffffffffffffffffff16815260200190815260200160002090506006544311801561139c57506000600d5414155b156114265760006113af60065443611ade565b90506000600954826113c1919061267f565b90506000600d54600a54836113d6919061267f565b6113e091906126f0565b6003546113ed9190612721565b90508360010154600a54828660000154611407919061267f565b61141191906126f0565b61141b9190612461565b945050505050611458565b8060010154600a546003548360000154611440919061267f565b61144a91906126f0565b6114549190612461565b9150505b919050565b600b60009054906101000a900473ffffffffffffffffffffffffffffffffffffffff1681565b61148b611b25565b73ffffffffffffffffffffffffffffffffffffffff166114a9610ace565b73ffffffffffffffffffffffffffffffffffffffff16146114ff576040517f08c379a00000000000000000000000000000000000000000000000000000000081526004016114f690612c01565b60405180910390fd5b565b600260015403611546576040517f08c379a000000000000000000000000000000000000000000000000000000000815260040161153d90612c6d565b60405180910390fd5b6002600181905550565b6006544311156115ca576000600d540361157057436006819055506115ca565b600061157e60065443611ade565b9050600060095482611590919061267f565b9050600d54600a54826115a3919061267f565b6115ad91906126f0565b6003546115ba9190612721565b6003819055504360068190555050505b565b80600d546115da9190612461565b600d8190555061162d3382600c60009054906101000a900473ffffffffffffffffffffffffffffffffffffffff1673ffffffffffffffffffffffffffffffffffffffff166118a59092919063ffffffff16565b50565b61167d3382600b60009054906101000a900473ffffffffffffffffffffffffffffffffffffffff1673ffffffffffffffffffffffffffffffffffffffff166118a59092919063ffffffff16565b600c60009054906101000a900473ffffffffffffffffffffffffffffffffffffffff1673ffffffffffffffffffffffffffffffffffffffff16600b60009054906101000a900473ffffffffffffffffffffffffffffffffffffffff1673ffffffffffffffffffffffffffffffffffffffff16036117d557600d54600c60009054906101000a900473ffffffffffffffffffffffffffffffffffffffff1673ffffffffffffffffffffffffffffffffffffffff166370a08231306040518263ffffffff1660e01b815260040161175291906120ca565b602060405180830381865afa15801561176f573d6000803e3d6000fd5b505050506040513d601f19601f820116820180604052508101906117939190612920565b10156117d4576040517f08c379a00000000000000000000000000000000000000000000000000000000081526004016117cb90612cd9565b60405180910390fd5b5b50565b60018081905550565b60008060009054906101000a900473ffffffffffffffffffffffffffffffffffffffff169050816000806101000a81548173ffffffffffffffffffffffffffffffffffffffff021916908373ffffffffffffffffffffffffffffffffffffffff1602179055508173ffffffffffffffffffffffffffffffffffffffff168173ffffffffffffffffffffffffffffffffffffffff167f8be0079c531659141344cd1fd0a4f28419497f9722a3daafe3b4186f6b6457e060405160405180910390a35050565b6119268363a9059cbb60e01b84846040516024016118c4929190612cf9565b604051602081830303815290604052907bffffffffffffffffffffffffffffffffffffffffffffffffffffffff19166020820180517bffffffffffffffffffffffffffffffffffffffffffffffffffffffff8381831617835250505050611b2d565b505050565b600080600c60009054906101000a900473ffffffffffffffffffffffffffffffffffffffff1673ffffffffffffffffffffffffffffffffffffffff166370a08231306040518263ffffffff1660e01b815260040161198991906120ca565b602060405180830381865afa1580156119a6573d6000803e3d6000fd5b505050506040513d601f19601f820116820180604052508101906119ca9190612920565b9050611a1b333085600c60009054906101000a900473ffffffffffffffffffffffffffffffffffffffff1673ffffffffffffffffffffffffffffffffffffffff16611bf5909392919063ffffffff16565b80600c60009054906101000a900473ffffffffffffffffffffffffffffffffffffffff1673ffffffffffffffffffffffffffffffffffffffff166370a08231306040518263ffffffff1660e01b8152600401611a7791906120ca565b602060405180830381865afa158015611a94573d6000803e3d6000fd5b505050506040513d601f19601f82011682018060405250810190611ab89190612920565b611ac29190612461565b915081600d54611ad29190612721565b600d8190555050919050565b60006004548211611afc578282611af59190612461565b9050611b1f565b6004548310611b0e5760009050611b1f565b82600454611b1c9190612461565b90505b92915050565b600033905090565b6000611b8f826040518060400160405280602081526020017f5361666545524332303a206c6f772d6c6576656c2063616c6c206661696c65648152508573ffffffffffffffffffffffffffffffffffffffff16611c7e9092919063ffffffff16565b9050600081511480611bb1575080806020019051810190611bb09190612d37565b5b611bf0576040517f08c379a0000000000000000000000000000000000000000000000000000000008152600401611be790612dd6565b60405180910390fd5b505050565b611c78846323b872dd60e01b858585604051602401611c1693929190612df6565b604051602081830303815290604052907bffffffffffffffffffffffffffffffffffffffffffffffffffffffff19166020820180517bffffffffffffffffffffffffffffffffffffffffffffffffffffffff8381831617835250505050611b2d565b50505050565b6060611c8d8484600085611c96565b90509392505050565b606082471015611cdb576040517f08c379a0000000000000000000000000000000000000000000000000000000008152600401611cd290612e9f565b60405180910390fd5b6000808673ffffffffffffffffffffffffffffffffffffffff168587604051611d049190612f30565b60006040518083038185875af1925050503d8060008114611d41576040519150601f19603f3d011682016040523d82523d6000602084013e611d46565b606091505b5091509150611d5787838387611d63565b92505050949350505050565b60608315611dc5576000835103611dbd57611d7d85611dd8565b611dbc576040517f08c379a0000000000000000000000000000000000000000000000000000000008152600401611db390612f93565b60405180910390fd5b5b829050611dd0565b611dcf8383611dfb565b5b949350505050565b6000808273ffffffffffffffffffffffffffffffffffffffff163b119050919050565b600082511115611e0e5781518083602001fd5b806040517f08c379a0000000000000000000000000000000000000000000000000000000008152600401611e429190613008565b60405180910390fd5b600080fd5b6000819050919050565b611e6381611e50565b8114611e6e57600080fd5b50565b600081359050611e8081611e5a565b92915050565b600060208284031215611e9c57611e9b611e4b565b5b6000611eaa84828501611e71565b91505092915050565b600073ffffffffffffffffffffffffffffffffffffffff82169050919050565b6000611ede82611eb3565b9050919050565b611eee81611ed3565b8114611ef957600080fd5b50565b600081359050611f0b81611ee5565b92915050565b600060208284031215611f2757611f26611e4b565b5b6000611f3584828501611efc565b91505092915050565b611f4781611e50565b82525050565b6000604082019050611f626000830185611f3e565b611f6f6020830184611f3e565b9392505050565b6000602082019050611f8b6000830184611f3e565b92915050565b6000611f9c82611ed3565b9050919050565b611fac81611f91565b8114611fb757600080fd5b50565b600081359050611fc981611fa3565b92915050565b600080600080600080600080610100898b031215611ff057611fef611e4b565b5b6000611ffe8b828c01611fba565b985050602061200f8b828c01611fba565b97505060406120208b828c01611e71565b96505060606120318b828c01611e71565b95505060806120428b828c01611e71565b94505060a06120538b828c01611e71565b93505060c06120648b828c01611e71565b92505060e06120758b828c01611efc565b9150509295985092959890939650565b60008115159050919050565b61209a81612085565b82525050565b60006020820190506120b56000830184612091565b92915050565b6120c481611ed3565b82525050565b60006020820190506120df60008301846120bb565b92915050565b600080604083850312156120fc576120fb611e4b565b5b600061210a85828601611e71565b925050602061211b85828601611e71565b9150509250929050565b61212e81612085565b811461213957600080fd5b50565b60008135905061214b81612125565b92915050565b6000806040838503121561216857612167611e4b565b5b60006121768582860161213c565b925050602061218785828601611e71565b9150509250929050565b6000819050919050565b60006121b66121b16121ac84611eb3565b612191565b611eb3565b9050919050565b60006121c88261219b565b9050919050565b60006121da826121bd565b9050919050565b6121ea816121cf565b82525050565b600060208201905061220560008301846121e1565b92915050565b600082825260208201905092915050565b7f506f6f6c20686173207374617274656400000000000000000000000000000000600082015250565b600061225260108361220b565b915061225d8261221c565b602082019050919050565b6000602082019050818103600083015261228181612245565b9050919050565b7f416c726561647920696e697469616c697a656400000000000000000000000000600082015250565b60006122be60138361220b565b91506122c982612288565b602082019050919050565b600060208201905081810360008301526122ed816122b1565b9050919050565b7f4e6f7420666163746f7279000000000000000000000000000000000000000000600082015250565b600061232a600b8361220b565b9150612335826122f4565b602082019050919050565b600060208201905081810360008301526123598161231d565b9050919050565b600060ff82169050919050565b61237681612360565b811461238157600080fd5b50565b6000815190506123938161236d565b92915050565b6000602082840312156123af576123ae611e4b565b5b60006123bd84828501612384565b91505092915050565b7f4d75737420626520696e666572696f7220746f20333000000000000000000000600082015250565b60006123fc60168361220b565b9150612407826123c6565b602082019050919050565b6000602082019050818103600083015261242b816123ef565b9050919050565b7f4e487b7100000000000000000000000000000000000000000000000000000000600052601160045260246000fd5b600061246c82611e50565b915061247783611e50565b925082820390508181111561248f5761248e612432565b5b92915050565b60008160011c9050919050565b6000808291508390505b60018511156124ec578086048111156124c8576124c7612432565b5b60018516156124d75780820291505b80810290506124e585612495565b94506124ac565b94509492505050565b60008261250557600190506125c1565b8161251357600090506125c1565b8160018114612529576002811461253357612562565b60019150506125c1565b60ff84111561254557612544612432565b5b8360020a91508482111561255c5761255b612432565b5b506125c1565b5060208310610133831016604e8410600b84101617156125975782820a90508381111561259257612591612432565b5b6125c1565b6125a484848460016124a2565b925090508184048111156125bb576125ba612432565b5b81810290505b9392505050565b60006125d382611e50565b91506125de83611e50565b925061260b7fffffffffffffffffffffffffffffffffffffffffffffffffffffffffffffffff84846124f5565b905092915050565b7f416d6f756e7420746f20776974686472617720746f6f20686967680000000000600082015250565b6000612649601b8361220b565b915061265482612613565b602082019050919050565b600060208201905081810360008301526126788161263c565b9050919050565b600061268a82611e50565b915061269583611e50565b92508282026126a381611e50565b915082820484148315176126ba576126b9612432565b5b5092915050565b7f4e487b7100000000000000000000000000000000000000000000000000000000600052601260045260246000fd5b60006126fb82611e50565b915061270683611e50565b925082612716576127156126c1565b5b828204905092915050565b600061272c82611e50565b915061273783611e50565b925082820190508082111561274f5761274e612432565b5b92915050565b7f4e6577207374617274426c6f636b206d757374206265206c6f7765722074686160008201527f6e206e657720656e64426c6f636b000000000000000000000000000000000000602082015250565b60006127b1602e8361220b565b91506127bc82612755565b604082019050919050565b600060208201905081810360008301526127e0816127a4565b9050919050565b7f4e6577207374617274426c6f636b206d7573742062652068696768657220746860008201527f616e2063757272656e7420626c6f636b00000000000000000000000000000000602082015250565b600061284360308361220b565b915061284e826127e7565b604082019050919050565b6000602082019050818103600083015261287281612836565b9050919050565b7f4f7065726174696f6e733a2043616e6e6f74207265636f76657220726577617260008201527f6420746f6b656e00000000000000000000000000000000000000000000000000602082015250565b60006128d560278361220b565b91506128e082612879565b604082019050919050565b60006020820190508181036000830152612904816128c8565b9050919050565b60008151905061291a81611e5a565b92915050565b60006020828403121561293657612935611e4b565b5b60006129448482850161290b565b91505092915050565b7f4f7065726174696f6e733a2043616e6e6f74207265636f766572207a65726f2060008201527f62616c616e636500000000000000000000000000000000000000000000000000602082015250565b60006129a960278361220b565b91506129b48261294d565b604082019050919050565b600060208201905081810360008301526129d88161299c565b9050919050565b7f4d75737420626520736574000000000000000000000000000000000000000000600082015250565b6000612a15600b8361220b565b9150612a20826129df565b602082019050919050565b60006020820190508181036000830152612a4481612a08565b9050919050565b7f4e6577206c696d6974206d757374206265206869676865720000000000000000600082015250565b6000612a8160188361220b565b9150612a8c82612a4b565b602082019050919050565b60006020820190508181036000830152612ab081612a74565b9050919050565b7f4465706f7369743a20416d6f756e742061626f7665206c696d69740000000000600082015250565b6000612aed601b8361220b565b9150612af882612ab7565b602082019050919050565b60006020820190508181036000830152612b1c81612ae0565b9050919050565b7f4f776e61626c653a206e6577206f776e657220697320746865207a65726f206160008201527f6464726573730000000000000000000000000000000000000000000000000000602082015250565b6000612b7f60268361220b565b9150612b8a82612b23565b604082019050919050565b60006020820190508181036000830152612bae81612b72565b9050919050565b7f4f776e61626c653a2063616c6c6572206973206e6f7420746865206f776e6572600082015250565b6000612beb60208361220b565b9150612bf682612bb5565b602082019050919050565b60006020820190508181036000830152612c1a81612bde565b9050919050565b7f5265656e7472616e637947756172643a207265656e7472616e742063616c6c00600082015250565b6000612c57601f8361220b565b9150612c6282612c21565b602082019050919050565b60006020820190508181036000830152612c8681612c4a565b9050919050565b7f7265776172647320656d70747900000000000000000000000000000000000000600082015250565b6000612cc3600d8361220b565b9150612cce82612c8d565b602082019050919050565b60006020820190508181036000830152612cf281612cb6565b9050919050565b6000604082019050612d0e60008301856120bb565b612d1b6020830184611f3e565b9392505050565b600081519050612d3181612125565b92915050565b600060208284031215612d4d57612d4c611e4b565b5b6000612d5b84828501612d22565b91505092915050565b7f5361666545524332303a204552433230206f7065726174696f6e20646964206e60008201527f6f74207375636365656400000000000000000000000000000000000000000000602082015250565b6000612dc0602a8361220b565b9150612dcb82612d64565b604082019050919050565b60006020820190508181036000830152612def81612db3565b9050919050565b6000606082019050612e0b60008301866120bb565b612e1860208301856120bb565b612e256040830184611f3e565b949350505050565b7f416464726573733a20696e73756666696369656e742062616c616e636520666f60008201527f722063616c6c0000000000000000000000000000000000000000000000000000602082015250565b6000612e8960268361220b565b9150612e9482612e2d565b604082019050919050565b60006020820190508181036000830152612eb881612e7c565b9050919050565b600081519050919050565b600081905092915050565b60005b83811015612ef3578082015181840152602081019050612ed8565b60008484015250505050565b6000612f0a82612ebf565b612f148185612eca565b9350612f24818560208601612ed5565b80840191505092915050565b6000612f3c8284612eff565b915081905092915050565b7f416464726573733a2063616c6c20746f206e6f6e2d636f6e7472616374000000600082015250565b6000612f7d601d8361220b565b9150612f8882612f47565b602082019050919050565b60006020820190508181036000830152612fac81612f70565b9050919050565b600081519050919050565b6000601f19601f8301169050919050565b6000612fda82612fb3565b612fe4818561220b565b9350612ff4818560208601612ed5565b612ffd81612fbe565b840191505092915050565b600060208201905081810360008301526130228184612fcf565b90509291505056fea2646970667358221220cb487777a23c463305c7c8096b486fc683d1b507f6cfdaa9404eab46303feff064736f6c63430008110033","opcodes":"PUSH1 0xA0 PUSH1 0x40 MSTORE CALLVALUE DUP1 ISZERO PUSH3 0x11 JUMPI PUSH1 0x0 DUP1 REVERT JUMPDEST POP PUSH3 0x32 PUSH3 0x26 PUSH3 0x73 PUSH1 0x20 SHL PUSH1 0x20 SHR JUMP JUMPDEST PUSH3 0x7B PUSH1 0x20 SHL PUSH1 0x20 SHR JUMP JUMPDEST PUSH1 0x1 DUP1 DUP2 SWAP1 SSTORE POP CALLER PUSH20 0xFFFFFFFFFFFFFFFFFFFFFFFFFFFFFFFFFFFFFFFF AND PUSH1 0x80 DUP2 PUSH20 0xFFFFFFFFFFFFFFFFFFFFFFFFFFFFFFFFFFFFFFFF AND DUP2 MSTORE POP POP PUSH3 0x13F JUMP JUMPDEST PUSH1 0x0 CALLER SWAP1 POP SWAP1 JUMP JUMPDEST PUSH1 0x0 DUP1 PUSH1 0x0 SWAP1 SLOAD SWAP1 PUSH2 0x100 EXP SWAP1 DIV PUSH20 0xFFFFFFFFFFFFFFFFFFFFFFFFFFFFFFFFFFFFFFFF AND SWAP1 POP DUP2 PUSH1 0x0 DUP1 PUSH2 0x100 EXP DUP2 SLOAD DUP2 PUSH20 0xFFFFFFFFFFFFFFFFFFFFFFFFFFFFFFFFFFFFFFFF MUL NOT AND SWAP1 DUP4 PUSH20 0xFFFFFFFFFFFFFFFFFFFFFFFFFFFFFFFFFFFFFFFF AND MUL OR SWAP1 SSTORE POP DUP2 PUSH20 0xFFFFFFFFFFFFFFFFFFFFFFFFFFFFFFFFFFFFFFFF AND DUP2 PUSH20 0xFFFFFFFFFFFFFFFFFFFFFFFFFFFFFFFFFFFFFFFF AND PUSH32 0x8BE0079C531659141344CD1FD0A4F28419497F9722A3DAAFE3B4186F6B6457E0 PUSH1 0x40 MLOAD PUSH1 0x40 MLOAD DUP1 SWAP2 SUB SWAP1 LOG3 POP POP JUMP JUMPDEST PUSH1 0x80 MLOAD PUSH2 0x3060 PUSH3 0x162 PUSH1 0x0 CODECOPY PUSH1 0x0 DUP2 DUP2 PUSH2 0x643 ADD MSTORE PUSH2 0x119A ADD MSTORE PUSH2 0x3060 PUSH1 0x0 RETURN INVALID PUSH1 0x80 PUSH1 0x40 MSTORE CALLVALUE DUP1 ISZERO PUSH2 0x10 JUMPI PUSH1 0x0 DUP1 REVERT JUMPDEST POP PUSH1 0x4 CALLDATASIZE LT PUSH2 0x1DA JUMPI PUSH1 0x0 CALLDATALOAD PUSH1 0xE0 SHR DUP1 PUSH4 0x8F662915 GT PUSH2 0x104 JUMPI DUP1 PUSH4 0xB6B55F25 GT PUSH2 0xA2 JUMPI DUP1 PUSH4 0xDB2E21BC GT PUSH2 0x71 JUMPI DUP1 PUSH4 0xDB2E21BC EQ PUSH2 0x4C6 JUMPI DUP1 PUSH4 0xF2FDE38B EQ PUSH2 0x4D0 JUMPI DUP1 PUSH4 0xF40F0F52 EQ PUSH2 0x4EC JUMPI DUP1 PUSH4 0xF7C618C1 EQ PUSH2 0x51C JUMPI PUSH2 0x1DA JUMP JUMPDEST DUP1 PUSH4 0xB6B55F25 EQ PUSH2 0x450 JUMPI DUP1 PUSH4 0xBD617191 EQ PUSH2 0x46C JUMPI DUP1 PUSH4 0xCC7A262E EQ PUSH2 0x48A JUMPI DUP1 PUSH4 0xCCD34CD5 EQ PUSH2 0x4A8 JUMPI PUSH2 0x1DA JUMP JUMPDEST DUP1 PUSH4 0x9BE65A60 GT PUSH2 0xDE JUMPI DUP1 PUSH4 0x9BE65A60 EQ PUSH2 0x3DC JUMPI DUP1 PUSH4 0x9C367BC2 EQ PUSH2 0x3F8 JUMPI DUP1 PUSH4 0xA0B40905 EQ PUSH2 0x416 JUMPI DUP1 PUSH4 0xA9F8D181 EQ PUSH2 0x432 JUMPI PUSH2 0x1DA JUMP JUMPDEST DUP1 PUSH4 0x8F662915 EQ PUSH2 0x384 JUMPI DUP1 PUSH4 0x92E8990E EQ PUSH2 0x3A2 JUMPI DUP1 PUSH4 0x9513997F EQ PUSH2 0x3C0 JUMPI PUSH2 0x1DA JUMP JUMPDEST DUP1 PUSH4 0x48CD4CB1 GT PUSH2 0x17C JUMPI DUP1 PUSH4 0x80DC0672 GT PUSH2 0x14B JUMPI DUP1 PUSH4 0x80DC0672 EQ PUSH2 0x320 JUMPI DUP1 PUSH4 0x8AD1071B EQ PUSH2 0x32A JUMPI DUP1 PUSH4 0x8AE39CAC EQ PUSH2 0x348 JUMPI DUP1 PUSH4 0x8DA5CB5B EQ PUSH2 0x366 JUMPI PUSH2 0x1DA JUMP JUMPDEST DUP1 PUSH4 0x48CD4CB1 EQ PUSH2 0x2BC JUMPI DUP1 PUSH4 0x4A7C01EC EQ PUSH2 0x2DA JUMPI DUP1 PUSH4 0x66FE9F8A EQ PUSH2 0x2F8 JUMPI DUP1 PUSH4 0x715018A6 EQ PUSH2 0x316 JUMPI PUSH2 0x1DA JUMP JUMPDEST DUP1 PUSH4 0x2AA2C381 GT PUSH2 0x1B8 JUMPI DUP1 PUSH4 0x2AA2C381 EQ PUSH2 0x24A JUMPI DUP1 PUSH4 0x2E1A7D4D EQ PUSH2 0x266 JUMPI DUP1 PUSH4 0x3279BEAB EQ PUSH2 0x282 JUMPI DUP1 PUSH4 0x392E53CD EQ PUSH2 0x29E JUMPI PUSH2 0x1DA JUMP JUMPDEST DUP1 PUSH4 0x1F8A976 EQ PUSH2 0x1DF JUMPI DUP1 PUSH4 0x1959A002 EQ PUSH2 0x1FB JUMPI DUP1 PUSH4 0x1AED6553 EQ PUSH2 0x22C JUMPI JUMPDEST PUSH1 0x0 DUP1 REVERT JUMPDEST PUSH2 0x1F9 PUSH1 0x4 DUP1 CALLDATASIZE SUB DUP2 ADD SWAP1 PUSH2 0x1F4 SWAP2 SWAP1 PUSH2 0x1E86 JUMP JUMPDEST PUSH2 0x53A JUMP JUMPDEST STOP JUMPDEST PUSH2 0x215 PUSH1 0x4 DUP1 CALLDATASIZE SUB DUP2 ADD SWAP1 PUSH2 0x210 SWAP2 SWAP1 PUSH2 0x1F11 JUMP JUMPDEST PUSH2 0x5C7 JUMP JUMPDEST PUSH1 0x40 MLOAD PUSH2 0x223 SWAP3 SWAP2 SWAP1 PUSH2 0x1F4D JUMP JUMPDEST PUSH1 0x40 MLOAD DUP1 SWAP2 SUB SWAP1 RETURN JUMPDEST PUSH2 0x234 PUSH2 0x5EB JUMP JUMPDEST PUSH1 0x40 MLOAD PUSH2 0x241 SWAP2 SWAP1 PUSH2 0x1F76 JUMP JUMPDEST PUSH1 0x40 MLOAD DUP1 SWAP2 SUB SWAP1 RETURN JUMPDEST PUSH2 0x264 PUSH1 0x4 DUP1 CALLDATASIZE SUB DUP2 ADD SWAP1 PUSH2 0x25F SWAP2 SWAP1 PUSH2 0x1FCF JUMP JUMPDEST PUSH2 0x5F1 JUMP JUMPDEST STOP JUMPDEST PUSH2 0x280 PUSH1 0x4 DUP1 CALLDATASIZE SUB DUP2 ADD SWAP1 PUSH2 0x27B SWAP2 SWAP1 PUSH2 0x1E86 JUMP JUMPDEST PUSH2 0x8CB JUMP JUMPDEST STOP JUMPDEST PUSH2 0x29C PUSH1 0x4 DUP1 CALLDATASIZE SUB DUP2 ADD SWAP1 PUSH2 0x297 SWAP2 SWAP1 PUSH2 0x1E86 JUMP JUMPDEST PUSH2 0xA57 JUMP JUMPDEST STOP JUMPDEST PUSH2 0x2A6 PUSH2 0xA6B JUMP JUMPDEST PUSH1 0x40 MLOAD PUSH2 0x2B3 SWAP2 SWAP1 PUSH2 0x20A0 JUMP JUMPDEST PUSH1 0x40 MLOAD DUP1 SWAP2 SUB SWAP1 RETURN JUMPDEST PUSH2 0x2C4 PUSH2 0xA7E JUMP JUMPDEST PUSH1 0x40 MLOAD PUSH2 0x2D1 SWAP2 SWAP1 PUSH2 0x1F76 JUMP JUMPDEST PUSH1 0x40 MLOAD DUP1 SWAP2 SUB SWAP1 RETURN JUMPDEST PUSH2 0x2E2 PUSH2 0xA84 JUMP JUMPDEST PUSH1 0x40 MLOAD PUSH2 0x2EF SWAP2 SWAP1 PUSH2 0x20A0 JUMP JUMPDEST PUSH1 0x40 MLOAD DUP1 SWAP2 SUB SWAP1 RETURN JUMPDEST PUSH2 0x300 PUSH2 0xA97 JUMP JUMPDEST PUSH1 0x40 MLOAD PUSH2 0x30D SWAP2 SWAP1 PUSH2 0x1F76 JUMP JUMPDEST PUSH1 0x40 MLOAD DUP1 SWAP2 SUB SWAP1 RETURN JUMPDEST PUSH2 0x31E PUSH2 0xA9D JUMP JUMPDEST STOP JUMPDEST PUSH2 0x328 PUSH2 0xAB1 JUMP JUMPDEST STOP JUMPDEST PUSH2 0x332 PUSH2 0xAC2 JUMP JUMPDEST PUSH1 0x40 MLOAD PUSH2 0x33F SWAP2 SWAP1 PUSH2 0x1F76 JUMP JUMPDEST PUSH1 0x40 MLOAD DUP1 SWAP2 SUB SWAP1 RETURN JUMPDEST PUSH2 0x350 PUSH2 0xAC8 JUMP JUMPDEST PUSH1 0x40 MLOAD PUSH2 0x35D SWAP2 SWAP1 PUSH2 0x1F76 JUMP JUMPDEST PUSH1 0x40 MLOAD DUP1 SWAP2 SUB SWAP1 RETURN JUMPDEST PUSH2 0x36E PUSH2 0xACE JUMP JUMPDEST PUSH1 0x40 MLOAD PUSH2 0x37B SWAP2 SWAP1 PUSH2 0x20CA JUMP JUMPDEST PUSH1 0x40 MLOAD DUP1 SWAP2 SUB SWAP1 RETURN JUMPDEST PUSH2 0x38C PUSH2 0xAF7 JUMP JUMPDEST PUSH1 0x40 MLOAD PUSH2 0x399 SWAP2 SWAP1 PUSH2 0x1F76 JUMP JUMPDEST PUSH1 0x40 MLOAD DUP1 SWAP2 SUB SWAP1 RETURN JUMPDEST PUSH2 0x3AA PUSH2 0xAFD JUMP JUMPDEST PUSH1 0x40 MLOAD PUSH2 0x3B7 SWAP2 SWAP1 PUSH2 0x20A0 JUMP JUMPDEST PUSH1 0x40 MLOAD DUP1 SWAP2 SUB SWAP1 RETURN JUMPDEST PUSH2 0x3DA PUSH1 0x4 DUP1 CALLDATASIZE SUB DUP2 ADD SWAP1 PUSH2 0x3D5 SWAP2 SWAP1 PUSH2 0x20E5 JUMP JUMPDEST PUSH2 0xB40 JUMP JUMPDEST STOP JUMPDEST PUSH2 0x3F6 PUSH1 0x4 DUP1 CALLDATASIZE SUB DUP2 ADD SWAP1 PUSH2 0x3F1 SWAP2 SWAP1 PUSH2 0x1F11 JUMP JUMPDEST PUSH2 0xC64 JUMP JUMPDEST STOP JUMPDEST PUSH2 0x400 PUSH2 0xEA0 JUMP JUMPDEST PUSH1 0x40 MLOAD PUSH2 0x40D SWAP2 SWAP1 PUSH2 0x1F76 JUMP JUMPDEST PUSH1 0x40 MLOAD DUP1 SWAP2 SUB SWAP1 RETURN JUMPDEST PUSH2 0x430 PUSH1 0x4 DUP1 CALLDATASIZE SUB DUP2 ADD SWAP1 PUSH2 0x42B SWAP2 SWAP1 PUSH2 0x2151 JUMP JUMPDEST PUSH2 0xEA6 JUMP JUMPDEST STOP JUMPDEST PUSH2 0x43A PUSH2 0xFB3 JUMP JUMPDEST PUSH1 0x40 MLOAD PUSH2 0x447 SWAP2 SWAP1 PUSH2 0x1F76 JUMP JUMPDEST PUSH1 0x40 MLOAD DUP1 SWAP2 SUB SWAP1 RETURN JUMPDEST PUSH2 0x46A PUSH1 0x4 DUP1 CALLDATASIZE SUB DUP2 ADD SWAP1 PUSH2 0x465 SWAP2 SWAP1 PUSH2 0x1E86 JUMP JUMPDEST PUSH2 0xFB9 JUMP JUMPDEST STOP JUMPDEST PUSH2 0x474 PUSH2 0x1198 JUMP JUMPDEST PUSH1 0x40 MLOAD PUSH2 0x481 SWAP2 SWAP1 PUSH2 0x20CA JUMP JUMPDEST PUSH1 0x40 MLOAD DUP1 SWAP2 SUB SWAP1 RETURN JUMPDEST PUSH2 0x492 PUSH2 0x11BC JUMP JUMPDEST PUSH1 0x40 MLOAD PUSH2 0x49F SWAP2 SWAP1 PUSH2 0x21F0 JUMP JUMPDEST PUSH1 0x40 MLOAD DUP1 SWAP2 SUB SWAP1 RETURN JUMPDEST PUSH2 0x4B0 PUSH2 0x11E2 JUMP JUMPDEST PUSH1 0x40 MLOAD PUSH2 0x4BD SWAP2 SWAP1 PUSH2 0x1F76 JUMP JUMPDEST PUSH1 0x40 MLOAD DUP1 SWAP2 SUB SWAP1 RETURN JUMPDEST PUSH2 0x4CE PUSH2 0x11E8 JUMP JUMPDEST STOP JUMPDEST PUSH2 0x4EA PUSH1 0x4 DUP1 CALLDATASIZE SUB DUP2 ADD SWAP1 PUSH2 0x4E5 SWAP2 SWAP1 PUSH2 0x1F11 JUMP JUMPDEST PUSH2 0x12C1 JUMP JUMPDEST STOP JUMPDEST PUSH2 0x506 PUSH1 0x4 DUP1 CALLDATASIZE SUB DUP2 ADD SWAP1 PUSH2 0x501 SWAP2 SWAP1 PUSH2 0x1F11 JUMP JUMPDEST PUSH2 0x1344 JUMP JUMPDEST PUSH1 0x40 MLOAD PUSH2 0x513 SWAP2 SWAP1 PUSH2 0x1F76 JUMP JUMPDEST PUSH1 0x40 MLOAD DUP1 SWAP2 SUB SWAP1 RETURN JUMPDEST PUSH2 0x524 PUSH2 0x145D JUMP JUMPDEST PUSH1 0x40 MLOAD PUSH2 0x531 SWAP2 SWAP1 PUSH2 0x21F0 JUMP JUMPDEST PUSH1 0x40 MLOAD DUP1 SWAP2 SUB SWAP1 RETURN JUMPDEST PUSH2 0x542 PUSH2 0x1483 JUMP JUMPDEST PUSH1 0x5 SLOAD NUMBER LT PUSH2 0x586 JUMPI PUSH1 0x40 MLOAD PUSH32 0x8C379A000000000000000000000000000000000000000000000000000000000 DUP2 MSTORE PUSH1 0x4 ADD PUSH2 0x57D SWAP1 PUSH2 0x2268 JUMP JUMPDEST PUSH1 0x40 MLOAD DUP1 SWAP2 SUB SWAP1 REVERT JUMPDEST DUP1 PUSH1 0x9 DUP2 SWAP1 SSTORE POP PUSH32 0xC4D677EEF92893AC7EC52FAF8140FC6C851AB4736302B4F3A89DFB20696A0DF DUP2 PUSH1 0x40 MLOAD PUSH2 0x5BC SWAP2 SWAP1 PUSH2 0x1F76 JUMP JUMPDEST PUSH1 0x40 MLOAD DUP1 SWAP2 SUB SWAP1 LOG1 POP JUMP JUMPDEST PUSH1 0xE PUSH1 0x20 MSTORE DUP1 PUSH1 0x0 MSTORE PUSH1 0x40 PUSH1 0x0 KECCAK256 PUSH1 0x0 SWAP2 POP SWAP1 POP DUP1 PUSH1 0x0 ADD SLOAD SWAP1 DUP1 PUSH1 0x1 ADD SLOAD SWAP1 POP DUP3 JUMP JUMPDEST PUSH1 0x4 SLOAD DUP2 JUMP JUMPDEST PUSH1 0x2 PUSH1 0x1 SWAP1 SLOAD SWAP1 PUSH2 0x100 EXP SWAP1 DIV PUSH1 0xFF AND ISZERO PUSH2 0x641 JUMPI PUSH1 0x40 MLOAD PUSH32 0x8C379A000000000000000000000000000000000000000000000000000000000 DUP2 MSTORE PUSH1 0x4 ADD PUSH2 0x638 SWAP1 PUSH2 0x22D4 JUMP JUMPDEST PUSH1 0x40 MLOAD DUP1 SWAP2 SUB SWAP1 REVERT JUMPDEST PUSH32 0x0 PUSH20 0xFFFFFFFFFFFFFFFFFFFFFFFFFFFFFFFFFFFFFFFF AND CALLER PUSH20 0xFFFFFFFFFFFFFFFFFFFFFFFFFFFFFFFFFFFFFFFF AND EQ PUSH2 0x6CF JUMPI PUSH1 0x40 MLOAD PUSH32 0x8C379A000000000000000000000000000000000000000000000000000000000 DUP2 MSTORE PUSH1 0x4 ADD PUSH2 0x6C6 SWAP1 PUSH2 0x2340 JUMP JUMPDEST PUSH1 0x40 MLOAD DUP1 SWAP2 SUB SWAP1 REVERT JUMPDEST PUSH1 0x1 PUSH1 0x2 PUSH1 0x1 PUSH2 0x100 EXP DUP2 SLOAD DUP2 PUSH1 0xFF MUL NOT AND SWAP1 DUP4 ISZERO ISZERO MUL OR SWAP1 SSTORE POP DUP8 PUSH1 0xC PUSH1 0x0 PUSH2 0x100 EXP DUP2 SLOAD DUP2 PUSH20 0xFFFFFFFFFFFFFFFFFFFFFFFFFFFFFFFFFFFFFFFF MUL NOT AND SWAP1 DUP4 PUSH20 0xFFFFFFFFFFFFFFFFFFFFFFFFFFFFFFFFFFFFFFFF AND MUL OR SWAP1 SSTORE POP DUP7 PUSH1 0xB PUSH1 0x0 PUSH2 0x100 EXP DUP2 SLOAD DUP2 PUSH20 0xFFFFFFFFFFFFFFFFFFFFFFFFFFFFFFFFFFFFFFFF MUL NOT AND SWAP1 DUP4 PUSH20 0xFFFFFFFFFFFFFFFFFFFFFFFFFFFFFFFFFFFFFFFF AND MUL OR SWAP1 SSTORE POP DUP6 PUSH1 0x9 DUP2 SWAP1 SSTORE POP DUP5 PUSH1 0x5 DUP2 SWAP1 SSTORE POP DUP4 PUSH1 0x4 DUP2 SWAP1 SSTORE POP PUSH1 0x0 DUP4 GT ISZERO PUSH2 0x7B4 JUMPI PUSH1 0x1 PUSH1 0x2 PUSH1 0x0 PUSH2 0x100 EXP DUP2 SLOAD DUP2 PUSH1 0xFF MUL NOT AND SWAP1 DUP4 ISZERO ISZERO MUL OR SWAP1 SSTORE POP DUP3 PUSH1 0x7 DUP2 SWAP1 SSTORE POP DUP2 PUSH1 0x8 DUP2 SWAP1 SSTORE POP JUMPDEST PUSH1 0x0 PUSH1 0xB PUSH1 0x0 SWAP1 SLOAD SWAP1 PUSH2 0x100 EXP SWAP1 DIV PUSH20 0xFFFFFFFFFFFFFFFFFFFFFFFFFFFFFFFFFFFFFFFF AND PUSH20 0xFFFFFFFFFFFFFFFFFFFFFFFFFFFFFFFFFFFFFFFF AND PUSH4 0x313CE567 PUSH1 0x40 MLOAD DUP2 PUSH4 0xFFFFFFFF AND PUSH1 0xE0 SHL DUP2 MSTORE PUSH1 0x4 ADD PUSH1 0x20 PUSH1 0x40 MLOAD DUP1 DUP4 SUB DUP2 DUP7 GAS STATICCALL ISZERO DUP1 ISZERO PUSH2 0x823 JUMPI RETURNDATASIZE PUSH1 0x0 DUP1 RETURNDATACOPY RETURNDATASIZE PUSH1 0x0 REVERT JUMPDEST POP POP POP POP PUSH1 0x40 MLOAD RETURNDATASIZE PUSH1 0x1F NOT PUSH1 0x1F DUP3 ADD AND DUP3 ADD DUP1 PUSH1 0x40 MSTORE POP DUP2 ADD SWAP1 PUSH2 0x847 SWAP2 SWAP1 PUSH2 0x2399 JUMP JUMPDEST PUSH1 0xFF AND SWAP1 POP PUSH1 0x1E DUP2 LT PUSH2 0x88F JUMPI PUSH1 0x40 MLOAD PUSH32 0x8C379A000000000000000000000000000000000000000000000000000000000 DUP2 MSTORE PUSH1 0x4 ADD PUSH2 0x886 SWAP1 PUSH2 0x2412 JUMP JUMPDEST PUSH1 0x40 MLOAD DUP1 SWAP2 SUB SWAP1 REVERT JUMPDEST DUP1 PUSH1 0x1E PUSH2 0x89C SWAP2 SWAP1 PUSH2 0x2461 JUMP JUMPDEST PUSH1 0xA PUSH2 0x8A8 SWAP2 SWAP1 PUSH2 0x25C8 JUMP JUMPDEST PUSH1 0xA DUP2 SWAP1 SSTORE POP PUSH1 0x5 SLOAD PUSH1 0x6 DUP2 SWAP1 SSTORE POP PUSH2 0x8C0 DUP3 PUSH2 0x12C1 JUMP JUMPDEST POP POP POP POP POP POP POP POP POP JUMP JUMPDEST PUSH2 0x8D3 PUSH2 0x1501 JUMP JUMPDEST PUSH1 0x0 PUSH1 0xE PUSH1 0x0 CALLER PUSH20 0xFFFFFFFFFFFFFFFFFFFFFFFFFFFFFFFFFFFFFFFF AND PUSH20 0xFFFFFFFFFFFFFFFFFFFFFFFFFFFFFFFFFFFFFFFF AND DUP2 MSTORE PUSH1 0x20 ADD SWAP1 DUP2 MSTORE PUSH1 0x20 ADD PUSH1 0x0 KECCAK256 SWAP1 POP DUP2 DUP2 PUSH1 0x0 ADD SLOAD LT ISZERO PUSH2 0x95D JUMPI PUSH1 0x40 MLOAD PUSH32 0x8C379A000000000000000000000000000000000000000000000000000000000 DUP2 MSTORE PUSH1 0x4 ADD PUSH2 0x954 SWAP1 PUSH2 0x265F JUMP JUMPDEST PUSH1 0x40 MLOAD DUP1 SWAP2 SUB SWAP1 REVERT JUMPDEST PUSH2 0x965 PUSH2 0x1550 JUMP JUMPDEST PUSH1 0x0 DUP2 PUSH1 0x1 ADD SLOAD PUSH1 0xA SLOAD PUSH1 0x3 SLOAD DUP5 PUSH1 0x0 ADD SLOAD PUSH2 0x981 SWAP2 SWAP1 PUSH2 0x267F JUMP JUMPDEST PUSH2 0x98B SWAP2 SWAP1 PUSH2 0x26F0 JUMP JUMPDEST PUSH2 0x995 SWAP2 SWAP1 PUSH2 0x2461 JUMP JUMPDEST SWAP1 POP PUSH1 0x0 DUP4 GT ISZERO PUSH2 0x9C2 JUMPI DUP3 DUP3 PUSH1 0x0 ADD SLOAD PUSH2 0x9B0 SWAP2 SWAP1 PUSH2 0x2461 JUMP JUMPDEST DUP3 PUSH1 0x0 ADD DUP2 SWAP1 SSTORE POP PUSH2 0x9C1 DUP4 PUSH2 0x15CC JUMP JUMPDEST JUMPDEST PUSH1 0x0 DUP2 GT ISZERO PUSH2 0x9D5 JUMPI PUSH2 0x9D4 DUP2 PUSH2 0x1630 JUMP JUMPDEST JUMPDEST PUSH1 0xA SLOAD PUSH1 0x3 SLOAD DUP4 PUSH1 0x0 ADD SLOAD PUSH2 0x9EA SWAP2 SWAP1 PUSH2 0x267F JUMP JUMPDEST PUSH2 0x9F4 SWAP2 SWAP1 PUSH2 0x26F0 JUMP JUMPDEST DUP3 PUSH1 0x1 ADD DUP2 SWAP1 SSTORE POP CALLER PUSH20 0xFFFFFFFFFFFFFFFFFFFFFFFFFFFFFFFFFFFFFFFF AND PUSH32 0x884EDAD9CE6FA2440D8A54CC123490EB96D2768479D49FF9C7366125A9424364 DUP5 PUSH1 0x40 MLOAD PUSH2 0xA42 SWAP2 SWAP1 PUSH2 0x1F76 JUMP JUMPDEST PUSH1 0x40 MLOAD DUP1 SWAP2 SUB SWAP1 LOG2 POP POP PUSH2 0xA54 PUSH2 0x17D8 JUMP JUMPDEST POP JUMP JUMPDEST PUSH2 0xA5F PUSH2 0x1483 JUMP JUMPDEST PUSH2 0xA68 DUP2 PUSH2 0x1630 JUMP JUMPDEST POP JUMP JUMPDEST PUSH1 0x2 PUSH1 0x1 SWAP1 SLOAD SWAP1 PUSH2 0x100 EXP SWAP1 DIV PUSH1 0xFF AND DUP2 JUMP JUMPDEST PUSH1 0x5 SLOAD DUP2 JUMP JUMPDEST PUSH1 0x2 PUSH1 0x0 SWAP1 SLOAD SWAP1 PUSH2 0x100 EXP SWAP1 DIV PUSH1 0xFF AND DUP2 JUMP JUMPDEST PUSH1 0x7 SLOAD DUP2 JUMP JUMPDEST PUSH2 0xAA5 PUSH2 0x1483 JUMP JUMPDEST PUSH2 0xAAF PUSH1 0x0 PUSH2 0x17E1 JUMP JUMPDEST JUMP JUMPDEST PUSH2 0xAB9 PUSH2 0x1483 JUMP JUMPDEST NUMBER PUSH1 0x4 DUP2 SWAP1 SSTORE POP JUMP JUMPDEST PUSH1 0x8 SLOAD DUP2 JUMP JUMPDEST PUSH1 0x9 SLOAD DUP2 JUMP JUMPDEST PUSH1 0x0 DUP1 PUSH1 0x0 SWAP1 SLOAD SWAP1 PUSH2 0x100 EXP SWAP1 DIV PUSH20 0xFFFFFFFFFFFFFFFFFFFFFFFFFFFFFFFFFFFFFFFF AND SWAP1 POP SWAP1 JUMP JUMPDEST PUSH1 0x3 SLOAD DUP2 JUMP JUMPDEST PUSH1 0x0 PUSH1 0x2 PUSH1 0x0 SWAP1 SLOAD SWAP1 PUSH2 0x100 EXP SWAP1 DIV PUSH1 0xFF AND ISZERO DUP1 PUSH2 0xB2A JUMPI POP PUSH1 0x8 SLOAD PUSH1 0x5 SLOAD PUSH2 0xB26 SWAP2 SWAP1 PUSH2 0x2721 JUMP JUMPDEST NUMBER LT ISZERO JUMPDEST ISZERO PUSH2 0xB38 JUMPI PUSH1 0x0 SWAP1 POP PUSH2 0xB3D JUMP JUMPDEST PUSH1 0x1 SWAP1 POP JUMPDEST SWAP1 JUMP JUMPDEST PUSH2 0xB48 PUSH2 0x1483 JUMP JUMPDEST PUSH1 0x5 SLOAD NUMBER LT PUSH2 0xB8C JUMPI PUSH1 0x40 MLOAD PUSH32 0x8C379A000000000000000000000000000000000000000000000000000000000 DUP2 MSTORE PUSH1 0x4 ADD PUSH2 0xB83 SWAP1 PUSH2 0x2268 JUMP JUMPDEST PUSH1 0x40 MLOAD DUP1 SWAP2 SUB SWAP1 REVERT JUMPDEST DUP1 DUP3 LT PUSH2 0xBCE JUMPI PUSH1 0x40 MLOAD PUSH32 0x8C379A000000000000000000000000000000000000000000000000000000000 DUP2 MSTORE PUSH1 0x4 ADD PUSH2 0xBC5 SWAP1 PUSH2 0x27C7 JUMP JUMPDEST PUSH1 0x40 MLOAD DUP1 SWAP2 SUB SWAP1 REVERT JUMPDEST DUP2 NUMBER LT PUSH2 0xC10 JUMPI PUSH1 0x40 MLOAD PUSH32 0x8C379A000000000000000000000000000000000000000000000000000000000 DUP2 MSTORE PUSH1 0x4 ADD PUSH2 0xC07 SWAP1 PUSH2 0x2859 JUMP JUMPDEST PUSH1 0x40 MLOAD DUP1 SWAP2 SUB SWAP1 REVERT JUMPDEST DUP2 PUSH1 0x5 DUP2 SWAP1 SSTORE POP DUP1 PUSH1 0x4 DUP2 SWAP1 SSTORE POP PUSH1 0x5 SLOAD PUSH1 0x6 DUP2 SWAP1 SSTORE POP PUSH32 0x7CD0AB87D19036F3DFADADB232C78AA4879DDA3F0C994A9D637532410EE2CE06 DUP3 DUP3 PUSH1 0x40 MLOAD PUSH2 0xC58 SWAP3 SWAP2 SWAP1 PUSH2 0x1F4D JUMP JUMPDEST PUSH1 0x40 MLOAD DUP1 SWAP2 SUB SWAP1 LOG1 POP POP JUMP JUMPDEST PUSH2 0xC6C PUSH2 0x1483 JUMP JUMPDEST PUSH1 0xB PUSH1 0x0 SWAP1 SLOAD SWAP1 PUSH2 0x100 EXP SWAP1 DIV PUSH20 0xFFFFFFFFFFFFFFFFFFFFFFFFFFFFFFFFFFFFFFFF AND PUSH20 0xFFFFFFFFFFFFFFFFFFFFFFFFFFFFFFFFFFFFFFFF AND DUP2 PUSH20 0xFFFFFFFFFFFFFFFFFFFFFFFFFFFFFFFFFFFFFFFF AND SUB PUSH2 0xCFC JUMPI PUSH1 0x40 MLOAD PUSH32 0x8C379A000000000000000000000000000000000000000000000000000000000 DUP2 MSTORE PUSH1 0x4 ADD PUSH2 0xCF3 SWAP1 PUSH2 0x28EB JUMP JUMPDEST PUSH1 0x40 MLOAD DUP1 SWAP2 SUB SWAP1 REVERT JUMPDEST PUSH1 0x0 DUP2 PUSH20 0xFFFFFFFFFFFFFFFFFFFFFFFFFFFFFFFFFFFFFFFF AND PUSH4 0x70A08231 ADDRESS PUSH1 0x40 MLOAD DUP3 PUSH4 0xFFFFFFFF AND PUSH1 0xE0 SHL DUP2 MSTORE PUSH1 0x4 ADD PUSH2 0xD37 SWAP2 SWAP1 PUSH2 0x20CA JUMP JUMPDEST PUSH1 0x20 PUSH1 0x40 MLOAD DUP1 DUP4 SUB DUP2 DUP7 GAS STATICCALL ISZERO DUP1 ISZERO PUSH2 0xD54 JUMPI RETURNDATASIZE PUSH1 0x0 DUP1 RETURNDATACOPY RETURNDATASIZE PUSH1 0x0 REVERT JUMPDEST POP POP POP POP PUSH1 0x40 MLOAD RETURNDATASIZE PUSH1 0x1F NOT PUSH1 0x1F DUP3 ADD AND DUP3 ADD DUP1 PUSH1 0x40 MSTORE POP DUP2 ADD SWAP1 PUSH2 0xD78 SWAP2 SWAP1 PUSH2 0x2920 JUMP JUMPDEST SWAP1 POP PUSH1 0xC PUSH1 0x0 SWAP1 SLOAD SWAP1 PUSH2 0x100 EXP SWAP1 DIV PUSH20 0xFFFFFFFFFFFFFFFFFFFFFFFFFFFFFFFFFFFFFFFF AND PUSH20 0xFFFFFFFFFFFFFFFFFFFFFFFFFFFFFFFFFFFFFFFF AND DUP3 PUSH20 0xFFFFFFFFFFFFFFFFFFFFFFFFFFFFFFFFFFFFFFFF AND SUB PUSH2 0xDE0 JUMPI PUSH1 0xD SLOAD DUP2 PUSH2 0xDDD SWAP2 SWAP1 PUSH2 0x2461 JUMP JUMPDEST SWAP1 POP JUMPDEST PUSH1 0x0 DUP2 SUB PUSH2 0xE23 JUMPI PUSH1 0x40 MLOAD PUSH32 0x8C379A000000000000000000000000000000000000000000000000000000000 DUP2 MSTORE PUSH1 0x4 ADD PUSH2 0xE1A SWAP1 PUSH2 0x29BF JUMP JUMPDEST PUSH1 0x40 MLOAD DUP1 SWAP2 SUB SWAP1 REVERT JUMPDEST PUSH2 0xE4E CALLER DUP3 DUP5 PUSH20 0xFFFFFFFFFFFFFFFFFFFFFFFFFFFFFFFFFFFFFFFF AND PUSH2 0x18A5 SWAP1 SWAP3 SWAP2 SWAP1 PUSH4 0xFFFFFFFF AND JUMP JUMPDEST DUP2 PUSH20 0xFFFFFFFFFFFFFFFFFFFFFFFFFFFFFFFFFFFFFFFF AND PUSH32 0x14F11966A996E0629572E51064726D2057A80FBD34EFC066682C06A71DBB6E98 DUP3 PUSH1 0x40 MLOAD PUSH2 0xE94 SWAP2 SWAP1 PUSH2 0x1F76 JUMP JUMPDEST PUSH1 0x40 MLOAD DUP1 SWAP2 SUB SWAP1 LOG2 POP POP JUMP JUMPDEST PUSH1 0xD SLOAD DUP2 JUMP JUMPDEST PUSH2 0xEAE PUSH2 0x1483 JUMP JUMPDEST PUSH1 0x2 PUSH1 0x0 SWAP1 SLOAD SWAP1 PUSH2 0x100 EXP SWAP1 DIV PUSH1 0xFF AND PUSH2 0xEFD JUMPI PUSH1 0x40 MLOAD PUSH32 0x8C379A000000000000000000000000000000000000000000000000000000000 DUP2 MSTORE PUSH1 0x4 ADD PUSH2 0xEF4 SWAP1 PUSH2 0x2A2B JUMP JUMPDEST PUSH1 0x40 MLOAD DUP1 SWAP2 SUB SWAP1 REVERT JUMPDEST DUP2 ISZERO PUSH2 0xF53 JUMPI PUSH1 0x7 SLOAD DUP2 GT PUSH2 0xF47 JUMPI PUSH1 0x40 MLOAD PUSH32 0x8C379A000000000000000000000000000000000000000000000000000000000 DUP2 MSTORE PUSH1 0x4 ADD PUSH2 0xF3E SWAP1 PUSH2 0x2A97 JUMP JUMPDEST PUSH1 0x40 MLOAD DUP1 SWAP2 SUB SWAP1 REVERT JUMPDEST DUP1 PUSH1 0x7 DUP2 SWAP1 SSTORE POP PUSH2 0xF76 JUMP JUMPDEST DUP2 PUSH1 0x2 PUSH1 0x0 PUSH2 0x100 EXP DUP2 SLOAD DUP2 PUSH1 0xFF MUL NOT AND SWAP1 DUP4 ISZERO ISZERO MUL OR SWAP1 SSTORE POP PUSH1 0x0 PUSH1 0x7 DUP2 SWAP1 SSTORE POP JUMPDEST PUSH32 0x241F67EE5F41B7A5CABF911367329BE7215900F602EBFC47F89DCE2A6BCD847C PUSH1 0x7 SLOAD PUSH1 0x40 MLOAD PUSH2 0xFA7 SWAP2 SWAP1 PUSH2 0x1F76 JUMP JUMPDEST PUSH1 0x40 MLOAD DUP1 SWAP2 SUB SWAP1 LOG1 POP POP JUMP JUMPDEST PUSH1 0x6 SLOAD DUP2 JUMP JUMPDEST PUSH2 0xFC1 PUSH2 0x1501 JUMP JUMPDEST PUSH1 0x0 PUSH1 0xE PUSH1 0x0 CALLER PUSH20 0xFFFFFFFFFFFFFFFFFFFFFFFFFFFFFFFFFFFFFFFF AND PUSH20 0xFFFFFFFFFFFFFFFFFFFFFFFFFFFFFFFFFFFFFFFF AND DUP2 MSTORE PUSH1 0x20 ADD SWAP1 DUP2 MSTORE PUSH1 0x20 ADD PUSH1 0x0 KECCAK256 SWAP1 POP PUSH2 0x100C PUSH2 0xAFD JUMP JUMPDEST PUSH1 0x2 PUSH1 0x0 PUSH2 0x100 EXP DUP2 SLOAD DUP2 PUSH1 0xFF MUL NOT AND SWAP1 DUP4 ISZERO ISZERO MUL OR SWAP1 SSTORE POP PUSH1 0x2 PUSH1 0x0 SWAP1 SLOAD SWAP1 PUSH2 0x100 EXP SWAP1 DIV PUSH1 0xFF AND ISZERO DUP1 PUSH2 0x1052 JUMPI POP PUSH1 0x7 SLOAD DUP2 PUSH1 0x0 ADD SLOAD DUP4 PUSH2 0x104F SWAP2 SWAP1 PUSH2 0x2721 JUMP JUMPDEST GT ISZERO JUMPDEST PUSH2 0x1091 JUMPI PUSH1 0x40 MLOAD PUSH32 0x8C379A000000000000000000000000000000000000000000000000000000000 DUP2 MSTORE PUSH1 0x4 ADD PUSH2 0x1088 SWAP1 PUSH2 0x2B03 JUMP JUMPDEST PUSH1 0x40 MLOAD DUP1 SWAP2 SUB SWAP1 REVERT JUMPDEST PUSH2 0x1099 PUSH2 0x1550 JUMP JUMPDEST PUSH1 0x0 DUP2 PUSH1 0x0 ADD SLOAD GT ISZERO PUSH2 0x10ED JUMPI PUSH1 0x0 DUP2 PUSH1 0x1 ADD SLOAD PUSH1 0xA SLOAD PUSH1 0x3 SLOAD DUP5 PUSH1 0x0 ADD SLOAD PUSH2 0x10C2 SWAP2 SWAP1 PUSH2 0x267F JUMP JUMPDEST PUSH2 0x10CC SWAP2 SWAP1 PUSH2 0x26F0 JUMP JUMPDEST PUSH2 0x10D6 SWAP2 SWAP1 PUSH2 0x2461 JUMP JUMPDEST SWAP1 POP PUSH1 0x0 DUP2 GT ISZERO PUSH2 0x10EB JUMPI PUSH2 0x10EA DUP2 PUSH2 0x1630 JUMP JUMPDEST JUMPDEST POP JUMPDEST PUSH1 0x0 DUP3 GT ISZERO PUSH2 0x1117 JUMPI PUSH2 0x10FF DUP3 PUSH2 0x192B JUMP JUMPDEST DUP2 PUSH1 0x0 ADD SLOAD PUSH2 0x110E SWAP2 SWAP1 PUSH2 0x2721 JUMP JUMPDEST DUP2 PUSH1 0x0 ADD DUP2 SWAP1 SSTORE POP JUMPDEST PUSH1 0xA SLOAD PUSH1 0x3 SLOAD DUP3 PUSH1 0x0 ADD SLOAD PUSH2 0x112C SWAP2 SWAP1 PUSH2 0x267F JUMP JUMPDEST PUSH2 0x1136 SWAP2 SWAP1 PUSH2 0x26F0 JUMP JUMPDEST DUP2 PUSH1 0x1 ADD DUP2 SWAP1 SSTORE POP CALLER PUSH20 0xFFFFFFFFFFFFFFFFFFFFFFFFFFFFFFFFFFFFFFFF AND PUSH32 0xE1FFFCC4923D04B559F4D29A8BFC6CDA04EB5B0D3C460751C2402C5C5CC9109C DUP4 PUSH1 0x40 MLOAD PUSH2 0x1184 SWAP2 SWAP1 PUSH2 0x1F76 JUMP JUMPDEST PUSH1 0x40 MLOAD DUP1 SWAP2 SUB SWAP1 LOG2 POP PUSH2 0x1195 PUSH2 0x17D8 JUMP JUMPDEST POP JUMP JUMPDEST PUSH32 0x0 DUP2 JUMP JUMPDEST PUSH1 0xC PUSH1 0x0 SWAP1 SLOAD SWAP1 PUSH2 0x100 EXP SWAP1 DIV PUSH20 0xFFFFFFFFFFFFFFFFFFFFFFFFFFFFFFFFFFFFFFFF AND DUP2 JUMP JUMPDEST PUSH1 0xA SLOAD DUP2 JUMP JUMPDEST PUSH2 0x11F0 PUSH2 0x1501 JUMP JUMPDEST PUSH1 0x0 PUSH1 0xE PUSH1 0x0 CALLER PUSH20 0xFFFFFFFFFFFFFFFFFFFFFFFFFFFFFFFFFFFFFFFF AND PUSH20 0xFFFFFFFFFFFFFFFFFFFFFFFFFFFFFFFFFFFFFFFF AND DUP2 MSTORE PUSH1 0x20 ADD SWAP1 DUP2 MSTORE PUSH1 0x20 ADD PUSH1 0x0 KECCAK256 SWAP1 POP PUSH1 0x0 DUP2 PUSH1 0x0 ADD SLOAD SWAP1 POP PUSH1 0x0 DUP3 PUSH1 0x0 ADD DUP2 SWAP1 SSTORE POP PUSH1 0x0 DUP3 PUSH1 0x1 ADD DUP2 SWAP1 SSTORE POP PUSH1 0x0 DUP2 GT ISZERO PUSH2 0x1263 JUMPI PUSH2 0x1262 DUP2 PUSH2 0x15CC JUMP JUMPDEST JUMPDEST CALLER PUSH20 0xFFFFFFFFFFFFFFFFFFFFFFFFFFFFFFFFFFFFFFFF AND PUSH32 0x5FAFA99D0643513820BE26656B45130B01E1C03062E1266BF36F88CBD3BD9695 DUP4 PUSH1 0x0 ADD SLOAD PUSH1 0x40 MLOAD PUSH2 0x12AD SWAP2 SWAP1 PUSH2 0x1F76 JUMP JUMPDEST PUSH1 0x40 MLOAD DUP1 SWAP2 SUB SWAP1 LOG2 POP POP PUSH2 0x12BF PUSH2 0x17D8 JUMP JUMPDEST JUMP JUMPDEST PUSH2 0x12C9 PUSH2 0x1483 JUMP JUMPDEST PUSH1 0x0 PUSH20 0xFFFFFFFFFFFFFFFFFFFFFFFFFFFFFFFFFFFFFFFF AND DUP2 PUSH20 0xFFFFFFFFFFFFFFFFFFFFFFFFFFFFFFFFFFFFFFFF AND SUB PUSH2 0x1338 JUMPI PUSH1 0x40 MLOAD PUSH32 0x8C379A000000000000000000000000000000000000000000000000000000000 DUP2 MSTORE PUSH1 0x4 ADD PUSH2 0x132F SWAP1 PUSH2 0x2B95 JUMP JUMPDEST PUSH1 0x40 MLOAD DUP1 SWAP2 SUB SWAP1 REVERT JUMPDEST PUSH2 0x1341 DUP2 PUSH2 0x17E1 JUMP JUMPDEST POP JUMP JUMPDEST PUSH1 0x0 DUP1 PUSH1 0xE PUSH1 0x0 DUP5 PUSH20 0xFFFFFFFFFFFFFFFFFFFFFFFFFFFFFFFFFFFFFFFF AND PUSH20 0xFFFFFFFFFFFFFFFFFFFFFFFFFFFFFFFFFFFFFFFF AND DUP2 MSTORE PUSH1 0x20 ADD SWAP1 DUP2 MSTORE PUSH1 0x20 ADD PUSH1 0x0 KECCAK256 SWAP1 POP PUSH1 0x6 SLOAD NUMBER GT DUP1 ISZERO PUSH2 0x139C JUMPI POP PUSH1 0x0 PUSH1 0xD SLOAD EQ ISZERO JUMPDEST ISZERO PUSH2 0x1426 JUMPI PUSH1 0x0 PUSH2 0x13AF PUSH1 0x6 SLOAD NUMBER PUSH2 0x1ADE JUMP JUMPDEST SWAP1 POP PUSH1 0x0 PUSH1 0x9 SLOAD DUP3 PUSH2 0x13C1 SWAP2 SWAP1 PUSH2 0x267F JUMP JUMPDEST SWAP1 POP PUSH1 0x0 PUSH1 0xD SLOAD PUSH1 0xA SLOAD DUP4 PUSH2 0x13D6 SWAP2 SWAP1 PUSH2 0x267F JUMP JUMPDEST PUSH2 0x13E0 SWAP2 SWAP1 PUSH2 0x26F0 JUMP JUMPDEST PUSH1 0x3 SLOAD PUSH2 0x13ED SWAP2 SWAP1 PUSH2 0x2721 JUMP JUMPDEST SWAP1 POP DUP4 PUSH1 0x1 ADD SLOAD PUSH1 0xA SLOAD DUP3 DUP7 PUSH1 0x0 ADD SLOAD PUSH2 0x1407 SWAP2 SWAP1 PUSH2 0x267F JUMP JUMPDEST PUSH2 0x1411 SWAP2 SWAP1 PUSH2 0x26F0 JUMP JUMPDEST PUSH2 0x141B SWAP2 SWAP1 PUSH2 0x2461 JUMP JUMPDEST SWAP5 POP POP POP POP POP PUSH2 0x1458 JUMP JUMPDEST DUP1 PUSH1 0x1 ADD SLOAD PUSH1 0xA SLOAD PUSH1 0x3 SLOAD DUP4 PUSH1 0x0 ADD SLOAD PUSH2 0x1440 SWAP2 SWAP1 PUSH2 0x267F JUMP JUMPDEST PUSH2 0x144A SWAP2 SWAP1 PUSH2 0x26F0 JUMP JUMPDEST PUSH2 0x1454 SWAP2 SWAP1 PUSH2 0x2461 JUMP JUMPDEST SWAP2 POP POP JUMPDEST SWAP2 SWAP1 POP JUMP JUMPDEST PUSH1 0xB PUSH1 0x0 SWAP1 SLOAD SWAP1 PUSH2 0x100 EXP SWAP1 DIV PUSH20 0xFFFFFFFFFFFFFFFFFFFFFFFFFFFFFFFFFFFFFFFF AND DUP2 JUMP JUMPDEST PUSH2 0x148B PUSH2 0x1B25 JUMP JUMPDEST PUSH20 0xFFFFFFFFFFFFFFFFFFFFFFFFFFFFFFFFFFFFFFFF AND PUSH2 0x14A9 PUSH2 0xACE JUMP JUMPDEST PUSH20 0xFFFFFFFFFFFFFFFFFFFFFFFFFFFFFFFFFFFFFFFF AND EQ PUSH2 0x14FF JUMPI PUSH1 0x40 MLOAD PUSH32 0x8C379A000000000000000000000000000000000000000000000000000000000 DUP2 MSTORE PUSH1 0x4 ADD PUSH2 0x14F6 SWAP1 PUSH2 0x2C01 JUMP JUMPDEST PUSH1 0x40 MLOAD DUP1 SWAP2 SUB SWAP1 REVERT JUMPDEST JUMP JUMPDEST PUSH1 0x2 PUSH1 0x1 SLOAD SUB PUSH2 0x1546 JUMPI PUSH1 0x40 MLOAD PUSH32 0x8C379A000000000000000000000000000000000000000000000000000000000 DUP2 MSTORE PUSH1 0x4 ADD PUSH2 0x153D SWAP1 PUSH2 0x2C6D JUMP JUMPDEST PUSH1 0x40 MLOAD DUP1 SWAP2 SUB SWAP1 REVERT JUMPDEST PUSH1 0x2 PUSH1 0x1 DUP2 SWAP1 SSTORE POP JUMP JUMPDEST PUSH1 0x6 SLOAD NUMBER GT ISZERO PUSH2 0x15CA JUMPI PUSH1 0x0 PUSH1 0xD SLOAD SUB PUSH2 0x1570 JUMPI NUMBER PUSH1 0x6 DUP2 SWAP1 SSTORE POP PUSH2 0x15CA JUMP JUMPDEST PUSH1 0x0 PUSH2 0x157E PUSH1 0x6 SLOAD NUMBER PUSH2 0x1ADE JUMP JUMPDEST SWAP1 POP PUSH1 0x0 PUSH1 0x9 SLOAD DUP3 PUSH2 0x1590 SWAP2 SWAP1 PUSH2 0x267F JUMP JUMPDEST SWAP1 POP PUSH1 0xD SLOAD PUSH1 0xA SLOAD DUP3 PUSH2 0x15A3 SWAP2 SWAP1 PUSH2 0x267F JUMP JUMPDEST PUSH2 0x15AD SWAP2 SWAP1 PUSH2 0x26F0 JUMP JUMPDEST PUSH1 0x3 SLOAD PUSH2 0x15BA SWAP2 SWAP1 PUSH2 0x2721 JUMP JUMPDEST PUSH1 0x3 DUP2 SWAP1 SSTORE POP NUMBER PUSH1 0x6 DUP2 SWAP1 SSTORE POP POP POP JUMPDEST JUMP JUMPDEST DUP1 PUSH1 0xD SLOAD PUSH2 0x15DA SWAP2 SWAP1 PUSH2 0x2461 JUMP JUMPDEST PUSH1 0xD DUP2 SWAP1 SSTORE POP PUSH2 0x162D CALLER DUP3 PUSH1 0xC PUSH1 0x0 SWAP1 SLOAD SWAP1 PUSH2 0x100 EXP SWAP1 DIV PUSH20 0xFFFFFFFFFFFFFFFFFFFFFFFFFFFFFFFFFFFFFFFF AND PUSH20 0xFFFFFFFFFFFFFFFFFFFFFFFFFFFFFFFFFFFFFFFF AND PUSH2 0x18A5 SWAP1 SWAP3 SWAP2 SWAP1 PUSH4 0xFFFFFFFF AND JUMP JUMPDEST POP JUMP JUMPDEST PUSH2 0x167D CALLER DUP3 PUSH1 0xB PUSH1 0x0 SWAP1 SLOAD SWAP1 PUSH2 0x100 EXP SWAP1 DIV PUSH20 0xFFFFFFFFFFFFFFFFFFFFFFFFFFFFFFFFFFFFFFFF AND PUSH20 0xFFFFFFFFFFFFFFFFFFFFFFFFFFFFFFFFFFFFFFFF AND PUSH2 0x18A5 SWAP1 SWAP3 SWAP2 SWAP1 PUSH4 0xFFFFFFFF AND JUMP JUMPDEST PUSH1 0xC PUSH1 0x0 SWAP1 SLOAD SWAP1 PUSH2 0x100 EXP SWAP1 DIV PUSH20 0xFFFFFFFFFFFFFFFFFFFFFFFFFFFFFFFFFFFFFFFF AND PUSH20 0xFFFFFFFFFFFFFFFFFFFFFFFFFFFFFFFFFFFFFFFF AND PUSH1 0xB PUSH1 0x0 SWAP1 SLOAD SWAP1 PUSH2 0x100 EXP SWAP1 DIV PUSH20 0xFFFFFFFFFFFFFFFFFFFFFFFFFFFFFFFFFFFFFFFF AND PUSH20 0xFFFFFFFFFFFFFFFFFFFFFFFFFFFFFFFFFFFFFFFF AND SUB PUSH2 0x17D5 JUMPI PUSH1 0xD SLOAD PUSH1 0xC PUSH1 0x0 SWAP1 SLOAD SWAP1 PUSH2 0x100 EXP SWAP1 DIV PUSH20 0xFFFFFFFFFFFFFFFFFFFFFFFFFFFFFFFFFFFFFFFF AND PUSH20 0xFFFFFFFFFFFFFFFFFFFFFFFFFFFFFFFFFFFFFFFF AND PUSH4 0x70A08231 ADDRESS PUSH1 0x40 MLOAD DUP3 PUSH4 0xFFFFFFFF AND PUSH1 0xE0 SHL DUP2 MSTORE PUSH1 0x4 ADD PUSH2 0x1752 SWAP2 SWAP1 PUSH2 0x20CA JUMP JUMPDEST PUSH1 0x20 PUSH1 0x40 MLOAD DUP1 DUP4 SUB DUP2 DUP7 GAS STATICCALL ISZERO DUP1 ISZERO PUSH2 0x176F JUMPI RETURNDATASIZE PUSH1 0x0 DUP1 RETURNDATACOPY RETURNDATASIZE PUSH1 0x0 REVERT JUMPDEST POP POP POP POP PUSH1 0x40 MLOAD RETURNDATASIZE PUSH1 0x1F NOT PUSH1 0x1F DUP3 ADD AND DUP3 ADD DUP1 PUSH1 0x40 MSTORE POP DUP2 ADD SWAP1 PUSH2 0x1793 SWAP2 SWAP1 PUSH2 0x2920 JUMP JUMPDEST LT ISZERO PUSH2 0x17D4 JUMPI PUSH1 0x40 MLOAD PUSH32 0x8C379A000000000000000000000000000000000000000000000000000000000 DUP2 MSTORE PUSH1 0x4 ADD PUSH2 0x17CB SWAP1 PUSH2 0x2CD9 JUMP JUMPDEST PUSH1 0x40 MLOAD DUP1 SWAP2 SUB SWAP1 REVERT JUMPDEST JUMPDEST POP JUMP JUMPDEST PUSH1 0x1 DUP1 DUP2 SWAP1 SSTORE POP JUMP JUMPDEST PUSH1 0x0 DUP1 PUSH1 0x0 SWAP1 SLOAD SWAP1 PUSH2 0x100 EXP SWAP1 DIV PUSH20 0xFFFFFFFFFFFFFFFFFFFFFFFFFFFFFFFFFFFFFFFF AND SWAP1 POP DUP2 PUSH1 0x0 DUP1 PUSH2 0x100 EXP DUP2 SLOAD DUP2 PUSH20 0xFFFFFFFFFFFFFFFFFFFFFFFFFFFFFFFFFFFFFFFF MUL NOT AND SWAP1 DUP4 PUSH20 0xFFFFFFFFFFFFFFFFFFFFFFFFFFFFFFFFFFFFFFFF AND MUL OR SWAP1 SSTORE POP DUP2 PUSH20 0xFFFFFFFFFFFFFFFFFFFFFFFFFFFFFFFFFFFFFFFF AND DUP2 PUSH20 0xFFFFFFFFFFFFFFFFFFFFFFFFFFFFFFFFFFFFFFFF AND PUSH32 0x8BE0079C531659141344CD1FD0A4F28419497F9722A3DAAFE3B4186F6B6457E0 PUSH1 0x40 MLOAD PUSH1 0x40 MLOAD DUP1 SWAP2 SUB SWAP1 LOG3 POP POP JUMP JUMPDEST PUSH2 0x1926 DUP4 PUSH4 0xA9059CBB PUSH1 0xE0 SHL DUP5 DUP5 PUSH1 0x40 MLOAD PUSH1 0x24 ADD PUSH2 0x18C4 SWAP3 SWAP2 SWAP1 PUSH2 0x2CF9 JUMP JUMPDEST PUSH1 0x40 MLOAD PUSH1 0x20 DUP2 DUP4 SUB SUB DUP2 MSTORE SWAP1 PUSH1 0x40 MSTORE SWAP1 PUSH28 0xFFFFFFFFFFFFFFFFFFFFFFFFFFFFFFFFFFFFFFFFFFFFFFFFFFFFFFFF NOT AND PUSH1 0x20 DUP3 ADD DUP1 MLOAD PUSH28 0xFFFFFFFFFFFFFFFFFFFFFFFFFFFFFFFFFFFFFFFFFFFFFFFFFFFFFFFF DUP4 DUP2 DUP4 AND OR DUP4 MSTORE POP POP POP POP PUSH2 0x1B2D JUMP JUMPDEST POP POP POP JUMP JUMPDEST PUSH1 0x0 DUP1 PUSH1 0xC PUSH1 0x0 SWAP1 SLOAD SWAP1 PUSH2 0x100 EXP SWAP1 DIV PUSH20 0xFFFFFFFFFFFFFFFFFFFFFFFFFFFFFFFFFFFFFFFF AND PUSH20 0xFFFFFFFFFFFFFFFFFFFFFFFFFFFFFFFFFFFFFFFF AND PUSH4 0x70A08231 ADDRESS PUSH1 0x40 MLOAD DUP3 PUSH4 0xFFFFFFFF AND PUSH1 0xE0 SHL DUP2 MSTORE PUSH1 0x4 ADD PUSH2 0x1989 SWAP2 SWAP1 PUSH2 0x20CA JUMP JUMPDEST PUSH1 0x20 PUSH1 0x40 MLOAD DUP1 DUP4 SUB DUP2 DUP7 GAS STATICCALL ISZERO DUP1 ISZERO PUSH2 0x19A6 JUMPI RETURNDATASIZE PUSH1 0x0 DUP1 RETURNDATACOPY RETURNDATASIZE PUSH1 0x0 REVERT JUMPDEST POP POP POP POP PUSH1 0x40 MLOAD RETURNDATASIZE PUSH1 0x1F NOT PUSH1 0x1F DUP3 ADD AND DUP3 ADD DUP1 PUSH1 0x40 MSTORE POP DUP2 ADD SWAP1 PUSH2 0x19CA SWAP2 SWAP1 PUSH2 0x2920 JUMP JUMPDEST SWAP1 POP PUSH2 0x1A1B CALLER ADDRESS DUP6 PUSH1 0xC PUSH1 0x0 SWAP1 SLOAD SWAP1 PUSH2 0x100 EXP SWAP1 DIV PUSH20 0xFFFFFFFFFFFFFFFFFFFFFFFFFFFFFFFFFFFFFFFF AND PUSH20 0xFFFFFFFFFFFFFFFFFFFFFFFFFFFFFFFFFFFFFFFF AND PUSH2 0x1BF5 SWAP1 SWAP4 SWAP3 SWAP2 SWAP1 PUSH4 0xFFFFFFFF AND JUMP JUMPDEST DUP1 PUSH1 0xC PUSH1 0x0 SWAP1 SLOAD SWAP1 PUSH2 0x100 EXP SWAP1 DIV PUSH20 0xFFFFFFFFFFFFFFFFFFFFFFFFFFFFFFFFFFFFFFFF AND PUSH20 0xFFFFFFFFFFFFFFFFFFFFFFFFFFFFFFFFFFFFFFFF AND PUSH4 0x70A08231 ADDRESS PUSH1 0x40 MLOAD DUP3 PUSH4 0xFFFFFFFF AND PUSH1 0xE0 SHL DUP2 MSTORE PUSH1 0x4 ADD PUSH2 0x1A77 SWAP2 SWAP1 PUSH2 0x20CA JUMP JUMPDEST PUSH1 0x20 PUSH1 0x40 MLOAD DUP1 DUP4 SUB DUP2 DUP7 GAS STATICCALL ISZERO DUP1 ISZERO PUSH2 0x1A94 JUMPI RETURNDATASIZE PUSH1 0x0 DUP1 RETURNDATACOPY RETURNDATASIZE PUSH1 0x0 REVERT JUMPDEST POP POP POP POP PUSH1 0x40 MLOAD RETURNDATASIZE PUSH1 0x1F NOT PUSH1 0x1F DUP3 ADD AND DUP3 ADD DUP1 PUSH1 0x40 MSTORE POP DUP2 ADD SWAP1 PUSH2 0x1AB8 SWAP2 SWAP1 PUSH2 0x2920 JUMP JUMPDEST PUSH2 0x1AC2 SWAP2 SWAP1 PUSH2 0x2461 JUMP JUMPDEST SWAP2 POP DUP2 PUSH1 0xD SLOAD PUSH2 0x1AD2 SWAP2 SWAP1 PUSH2 0x2721 JUMP JUMPDEST PUSH1 0xD DUP2 SWAP1 SSTORE POP POP SWAP2 SWAP1 POP JUMP JUMPDEST PUSH1 0x0 PUSH1 0x4 SLOAD DUP3 GT PUSH2 0x1AFC JUMPI DUP3 DUP3 PUSH2 0x1AF5 SWAP2 SWAP1 PUSH2 0x2461 JUMP JUMPDEST SWAP1 POP PUSH2 0x1B1F JUMP JUMPDEST PUSH1 0x4 SLOAD DUP4 LT PUSH2 0x1B0E JUMPI PUSH1 0x0 SWAP1 POP PUSH2 0x1B1F JUMP JUMPDEST DUP3 PUSH1 0x4 SLOAD PUSH2 0x1B1C SWAP2 SWAP1 PUSH2 0x2461 JUMP JUMPDEST SWAP1 POP JUMPDEST SWAP3 SWAP2 POP POP JUMP JUMPDEST PUSH1 0x0 CALLER SWAP1 POP SWAP1 JUMP JUMPDEST PUSH1 0x0 PUSH2 0x1B8F DUP3 PUSH1 0x40 MLOAD DUP1 PUSH1 0x40 ADD PUSH1 0x40 MSTORE DUP1 PUSH1 0x20 DUP2 MSTORE PUSH1 0x20 ADD PUSH32 0x5361666545524332303A206C6F772D6C6576656C2063616C6C206661696C6564 DUP2 MSTORE POP DUP6 PUSH20 0xFFFFFFFFFFFFFFFFFFFFFFFFFFFFFFFFFFFFFFFF AND PUSH2 0x1C7E SWAP1 SWAP3 SWAP2 SWAP1 PUSH4 0xFFFFFFFF AND JUMP JUMPDEST SWAP1 POP PUSH1 0x0 DUP2 MLOAD EQ DUP1 PUSH2 0x1BB1 JUMPI POP DUP1 DUP1 PUSH1 0x20 ADD SWAP1 MLOAD DUP2 ADD SWAP1 PUSH2 0x1BB0 SWAP2 SWAP1 PUSH2 0x2D37 JUMP JUMPDEST JUMPDEST PUSH2 0x1BF0 JUMPI PUSH1 0x40 MLOAD PUSH32 0x8C379A000000000000000000000000000000000000000000000000000000000 DUP2 MSTORE PUSH1 0x4 ADD PUSH2 0x1BE7 SWAP1 PUSH2 0x2DD6 JUMP JUMPDEST PUSH1 0x40 MLOAD DUP1 SWAP2 SUB SWAP1 REVERT JUMPDEST POP POP POP JUMP JUMPDEST PUSH2 0x1C78 DUP5 PUSH4 0x23B872DD PUSH1 0xE0 SHL DUP6 DUP6 DUP6 PUSH1 0x40 MLOAD PUSH1 0x24 ADD PUSH2 0x1C16 SWAP4 SWAP3 SWAP2 SWAP1 PUSH2 0x2DF6 JUMP JUMPDEST PUSH1 0x40 MLOAD PUSH1 0x20 DUP2 DUP4 SUB SUB DUP2 MSTORE SWAP1 PUSH1 0x40 MSTORE SWAP1 PUSH28 0xFFFFFFFFFFFFFFFFFFFFFFFFFFFFFFFFFFFFFFFFFFFFFFFFFFFFFFFF NOT AND PUSH1 0x20 DUP3 ADD DUP1 MLOAD PUSH28 0xFFFFFFFFFFFFFFFFFFFFFFFFFFFFFFFFFFFFFFFFFFFFFFFFFFFFFFFF DUP4 DUP2 DUP4 AND OR DUP4 MSTORE POP POP POP POP PUSH2 0x1B2D JUMP JUMPDEST POP POP POP POP JUMP JUMPDEST PUSH1 0x60 PUSH2 0x1C8D DUP5 DUP5 PUSH1 0x0 DUP6 PUSH2 0x1C96 JUMP JUMPDEST SWAP1 POP SWAP4 SWAP3 POP POP POP JUMP JUMPDEST PUSH1 0x60 DUP3 SELFBALANCE LT ISZERO PUSH2 0x1CDB JUMPI PUSH1 0x40 MLOAD PUSH32 0x8C379A000000000000000000000000000000000000000000000000000000000 DUP2 MSTORE PUSH1 0x4 ADD PUSH2 0x1CD2 SWAP1 PUSH2 0x2E9F JUMP JUMPDEST PUSH1 0x40 MLOAD DUP1 SWAP2 SUB SWAP1 REVERT JUMPDEST PUSH1 0x0 DUP1 DUP7 PUSH20 0xFFFFFFFFFFFFFFFFFFFFFFFFFFFFFFFFFFFFFFFF AND DUP6 DUP8 PUSH1 0x40 MLOAD PUSH2 0x1D04 SWAP2 SWAP1 PUSH2 0x2F30 JUMP JUMPDEST PUSH1 0x0 PUSH1 0x40 MLOAD DUP1 DUP4 SUB DUP2 DUP6 DUP8 GAS CALL SWAP3 POP POP POP RETURNDATASIZE DUP1 PUSH1 0x0 DUP2 EQ PUSH2 0x1D41 JUMPI PUSH1 0x40 MLOAD SWAP2 POP PUSH1 0x1F NOT PUSH1 0x3F RETURNDATASIZE ADD AND DUP3 ADD PUSH1 0x40 MSTORE RETURNDATASIZE DUP3 MSTORE RETURNDATASIZE PUSH1 0x0 PUSH1 0x20 DUP5 ADD RETURNDATACOPY PUSH2 0x1D46 JUMP JUMPDEST PUSH1 0x60 SWAP2 POP JUMPDEST POP SWAP2 POP SWAP2 POP PUSH2 0x1D57 DUP8 DUP4 DUP4 DUP8 PUSH2 0x1D63 JUMP JUMPDEST SWAP3 POP POP POP SWAP5 SWAP4 POP POP POP POP JUMP JUMPDEST PUSH1 0x60 DUP4 ISZERO PUSH2 0x1DC5 JUMPI PUSH1 0x0 DUP4 MLOAD SUB PUSH2 0x1DBD JUMPI PUSH2 0x1D7D DUP6 PUSH2 0x1DD8 JUMP JUMPDEST PUSH2 0x1DBC JUMPI PUSH1 0x40 MLOAD PUSH32 0x8C379A000000000000000000000000000000000000000000000000000000000 DUP2 MSTORE PUSH1 0x4 ADD PUSH2 0x1DB3 SWAP1 PUSH2 0x2F93 JUMP JUMPDEST PUSH1 0x40 MLOAD DUP1 SWAP2 SUB SWAP1 REVERT JUMPDEST JUMPDEST DUP3 SWAP1 POP PUSH2 0x1DD0 JUMP JUMPDEST PUSH2 0x1DCF DUP4 DUP4 PUSH2 0x1DFB JUMP JUMPDEST JUMPDEST SWAP5 SWAP4 POP POP POP POP JUMP JUMPDEST PUSH1 0x0 DUP1 DUP3 PUSH20 0xFFFFFFFFFFFFFFFFFFFFFFFFFFFFFFFFFFFFFFFF AND EXTCODESIZE GT SWAP1 POP SWAP2 SWAP1 POP JUMP JUMPDEST PUSH1 0x0 DUP3 MLOAD GT ISZERO PUSH2 0x1E0E JUMPI DUP2 MLOAD DUP1 DUP4 PUSH1 0x20 ADD REVERT JUMPDEST DUP1 PUSH1 0x40 MLOAD PUSH32 0x8C379A000000000000000000000000000000000000000000000000000000000 DUP2 MSTORE PUSH1 0x4 ADD PUSH2 0x1E42 SWAP2 SWAP1 PUSH2 0x3008 JUMP JUMPDEST PUSH1 0x40 MLOAD DUP1 SWAP2 SUB SWAP1 REVERT JUMPDEST PUSH1 0x0 DUP1 REVERT JUMPDEST PUSH1 0x0 DUP2 SWAP1 POP SWAP2 SWAP1 POP JUMP JUMPDEST PUSH2 0x1E63 DUP2 PUSH2 0x1E50 JUMP JUMPDEST DUP2 EQ PUSH2 0x1E6E JUMPI PUSH1 0x0 DUP1 REVERT JUMPDEST POP JUMP JUMPDEST PUSH1 0x0 DUP2 CALLDATALOAD SWAP1 POP PUSH2 0x1E80 DUP2 PUSH2 0x1E5A JUMP JUMPDEST SWAP3 SWAP2 POP POP JUMP JUMPDEST PUSH1 0x0 PUSH1 0x20 DUP3 DUP5 SUB SLT ISZERO PUSH2 0x1E9C JUMPI PUSH2 0x1E9B PUSH2 0x1E4B JUMP JUMPDEST JUMPDEST PUSH1 0x0 PUSH2 0x1EAA DUP5 DUP3 DUP6 ADD PUSH2 0x1E71 JUMP JUMPDEST SWAP2 POP POP SWAP3 SWAP2 POP POP JUMP JUMPDEST PUSH1 0x0 PUSH20 0xFFFFFFFFFFFFFFFFFFFFFFFFFFFFFFFFFFFFFFFF DUP3 AND SWAP1 POP SWAP2 SWAP1 POP JUMP JUMPDEST PUSH1 0x0 PUSH2 0x1EDE DUP3 PUSH2 0x1EB3 JUMP JUMPDEST SWAP1 POP SWAP2 SWAP1 POP JUMP JUMPDEST PUSH2 0x1EEE DUP2 PUSH2 0x1ED3 JUMP JUMPDEST DUP2 EQ PUSH2 0x1EF9 JUMPI PUSH1 0x0 DUP1 REVERT JUMPDEST POP JUMP JUMPDEST PUSH1 0x0 DUP2 CALLDATALOAD SWAP1 POP PUSH2 0x1F0B DUP2 PUSH2 0x1EE5 JUMP JUMPDEST SWAP3 SWAP2 POP POP JUMP JUMPDEST PUSH1 0x0 PUSH1 0x20 DUP3 DUP5 SUB SLT ISZERO PUSH2 0x1F27 JUMPI PUSH2 0x1F26 PUSH2 0x1E4B JUMP JUMPDEST JUMPDEST PUSH1 0x0 PUSH2 0x1F35 DUP5 DUP3 DUP6 ADD PUSH2 0x1EFC JUMP JUMPDEST SWAP2 POP POP SWAP3 SWAP2 POP POP JUMP JUMPDEST PUSH2 0x1F47 DUP2 PUSH2 0x1E50 JUMP JUMPDEST DUP3 MSTORE POP POP JUMP JUMPDEST PUSH1 0x0 PUSH1 0x40 DUP3 ADD SWAP1 POP PUSH2 0x1F62 PUSH1 0x0 DUP4 ADD DUP6 PUSH2 0x1F3E JUMP JUMPDEST PUSH2 0x1F6F PUSH1 0x20 DUP4 ADD DUP5 PUSH2 0x1F3E JUMP JUMPDEST SWAP4 SWAP3 POP POP POP JUMP JUMPDEST PUSH1 0x0 PUSH1 0x20 DUP3 ADD SWAP1 POP PUSH2 0x1F8B PUSH1 0x0 DUP4 ADD DUP5 PUSH2 0x1F3E JUMP JUMPDEST SWAP3 SWAP2 POP POP JUMP JUMPDEST PUSH1 0x0 PUSH2 0x1F9C DUP3 PUSH2 0x1ED3 JUMP JUMPDEST SWAP1 POP SWAP2 SWAP1 POP JUMP JUMPDEST PUSH2 0x1FAC DUP2 PUSH2 0x1F91 JUMP JUMPDEST DUP2 EQ PUSH2 0x1FB7 JUMPI PUSH1 0x0 DUP1 REVERT JUMPDEST POP JUMP JUMPDEST PUSH1 0x0 DUP2 CALLDATALOAD SWAP1 POP PUSH2 0x1FC9 DUP2 PUSH2 0x1FA3 JUMP JUMPDEST SWAP3 SWAP2 POP POP JUMP JUMPDEST PUSH1 0x0 DUP1 PUSH1 0x0 DUP1 PUSH1 0x0 DUP1 PUSH1 0x0 DUP1 PUSH2 0x100 DUP10 DUP12 SUB SLT ISZERO PUSH2 0x1FF0 JUMPI PUSH2 0x1FEF PUSH2 0x1E4B JUMP JUMPDEST JUMPDEST PUSH1 0x0 PUSH2 0x1FFE DUP12 DUP3 DUP13 ADD PUSH2 0x1FBA JUMP JUMPDEST SWAP9 POP POP PUSH1 0x20 PUSH2 0x200F DUP12 DUP3 DUP13 ADD PUSH2 0x1FBA JUMP JUMPDEST SWAP8 POP POP PUSH1 0x40 PUSH2 0x2020 DUP12 DUP3 DUP13 ADD PUSH2 0x1E71 JUMP JUMPDEST SWAP7 POP POP PUSH1 0x60 PUSH2 0x2031 DUP12 DUP3 DUP13 ADD PUSH2 0x1E71 JUMP JUMPDEST SWAP6 POP POP PUSH1 0x80 PUSH2 0x2042 DUP12 DUP3 DUP13 ADD PUSH2 0x1E71 JUMP JUMPDEST SWAP5 POP POP PUSH1 0xA0 PUSH2 0x2053 DUP12 DUP3 DUP13 ADD PUSH2 0x1E71 JUMP JUMPDEST SWAP4 POP POP PUSH1 0xC0 PUSH2 0x2064 DUP12 DUP3 DUP13 ADD PUSH2 0x1E71 JUMP JUMPDEST SWAP3 POP POP PUSH1 0xE0 PUSH2 0x2075 DUP12 DUP3 DUP13 ADD PUSH2 0x1EFC JUMP JUMPDEST SWAP2 POP POP SWAP3 SWAP6 SWAP9 POP SWAP3 SWAP6 SWAP9 SWAP1 SWAP4 SWAP7 POP JUMP JUMPDEST PUSH1 0x0 DUP2 ISZERO ISZERO SWAP1 POP SWAP2 SWAP1 POP JUMP JUMPDEST PUSH2 0x209A DUP2 PUSH2 0x2085 JUMP JUMPDEST DUP3 MSTORE POP POP JUMP JUMPDEST PUSH1 0x0 PUSH1 0x20 DUP3 ADD SWAP1 POP PUSH2 0x20B5 PUSH1 0x0 DUP4 ADD DUP5 PUSH2 0x2091 JUMP JUMPDEST SWAP3 SWAP2 POP POP JUMP JUMPDEST PUSH2 0x20C4 DUP2 PUSH2 0x1ED3 JUMP JUMPDEST DUP3 MSTORE POP POP JUMP JUMPDEST PUSH1 0x0 PUSH1 0x20 DUP3 ADD SWAP1 POP PUSH2 0x20DF PUSH1 0x0 DUP4 ADD DUP5 PUSH2 0x20BB JUMP JUMPDEST SWAP3 SWAP2 POP POP JUMP JUMPDEST PUSH1 0x0 DUP1 PUSH1 0x40 DUP4 DUP6 SUB SLT ISZERO PUSH2 0x20FC JUMPI PUSH2 0x20FB PUSH2 0x1E4B JUMP JUMPDEST JUMPDEST PUSH1 0x0 PUSH2 0x210A DUP6 DUP3 DUP7 ADD PUSH2 0x1E71 JUMP JUMPDEST SWAP3 POP POP PUSH1 0x20 PUSH2 0x211B DUP6 DUP3 DUP7 ADD PUSH2 0x1E71 JUMP JUMPDEST SWAP2 POP POP SWAP3 POP SWAP3 SWAP1 POP JUMP JUMPDEST PUSH2 0x212E DUP2 PUSH2 0x2085 JUMP JUMPDEST DUP2 EQ PUSH2 0x2139 JUMPI PUSH1 0x0 DUP1 REVERT JUMPDEST POP JUMP JUMPDEST PUSH1 0x0 DUP2 CALLDATALOAD SWAP1 POP PUSH2 0x214B DUP2 PUSH2 0x2125 JUMP JUMPDEST SWAP3 SWAP2 POP POP JUMP JUMPDEST PUSH1 0x0 DUP1 PUSH1 0x40 DUP4 DUP6 SUB SLT ISZERO PUSH2 0x2168 JUMPI PUSH2 0x2167 PUSH2 0x1E4B JUMP JUMPDEST JUMPDEST PUSH1 0x0 PUSH2 0x2176 DUP6 DUP3 DUP7 ADD PUSH2 0x213C JUMP JUMPDEST SWAP3 POP POP PUSH1 0x20 PUSH2 0x2187 DUP6 DUP3 DUP7 ADD PUSH2 0x1E71 JUMP JUMPDEST SWAP2 POP POP SWAP3 POP SWAP3 SWAP1 POP JUMP JUMPDEST PUSH1 0x0 DUP2 SWAP1 POP SWAP2 SWAP1 POP JUMP JUMPDEST PUSH1 0x0 PUSH2 0x21B6 PUSH2 0x21B1 PUSH2 0x21AC DUP5 PUSH2 0x1EB3 JUMP JUMPDEST PUSH2 0x2191 JUMP JUMPDEST PUSH2 0x1EB3 JUMP JUMPDEST SWAP1 POP SWAP2 SWAP1 POP JUMP JUMPDEST PUSH1 0x0 PUSH2 0x21C8 DUP3 PUSH2 0x219B JUMP JUMPDEST SWAP1 POP SWAP2 SWAP1 POP JUMP JUMPDEST PUSH1 0x0 PUSH2 0x21DA DUP3 PUSH2 0x21BD JUMP JUMPDEST SWAP1 POP SWAP2 SWAP1 POP JUMP JUMPDEST PUSH2 0x21EA DUP2 PUSH2 0x21CF JUMP JUMPDEST DUP3 MSTORE POP POP JUMP JUMPDEST PUSH1 0x0 PUSH1 0x20 DUP3 ADD SWAP1 POP PUSH2 0x2205 PUSH1 0x0 DUP4 ADD DUP5 PUSH2 0x21E1 JUMP JUMPDEST SWAP3 SWAP2 POP POP JUMP JUMPDEST PUSH1 0x0 DUP3 DUP3 MSTORE PUSH1 0x20 DUP3 ADD SWAP1 POP SWAP3 SWAP2 POP POP JUMP JUMPDEST PUSH32 0x506F6F6C20686173207374617274656400000000000000000000000000000000 PUSH1 0x0 DUP3 ADD MSTORE POP JUMP JUMPDEST PUSH1 0x0 PUSH2 0x2252 PUSH1 0x10 DUP4 PUSH2 0x220B JUMP JUMPDEST SWAP2 POP PUSH2 0x225D DUP3 PUSH2 0x221C JUMP JUMPDEST PUSH1 0x20 DUP3 ADD SWAP1 POP SWAP2 SWAP1 POP JUMP JUMPDEST PUSH1 0x0 PUSH1 0x20 DUP3 ADD SWAP1 POP DUP2 DUP2 SUB PUSH1 0x0 DUP4 ADD MSTORE PUSH2 0x2281 DUP2 PUSH2 0x2245 JUMP JUMPDEST SWAP1 POP SWAP2 SWAP1 POP JUMP JUMPDEST PUSH32 0x416C726561647920696E697469616C697A656400000000000000000000000000 PUSH1 0x0 DUP3 ADD MSTORE POP JUMP JUMPDEST PUSH1 0x0 PUSH2 0x22BE PUSH1 0x13 DUP4 PUSH2 0x220B JUMP JUMPDEST SWAP2 POP PUSH2 0x22C9 DUP3 PUSH2 0x2288 JUMP JUMPDEST PUSH1 0x20 DUP3 ADD SWAP1 POP SWAP2 SWAP1 POP JUMP JUMPDEST PUSH1 0x0 PUSH1 0x20 DUP3 ADD SWAP1 POP DUP2 DUP2 SUB PUSH1 0x0 DUP4 ADD MSTORE PUSH2 0x22ED DUP2 PUSH2 0x22B1 JUMP JUMPDEST SWAP1 POP SWAP2 SWAP1 POP JUMP JUMPDEST PUSH32 0x4E6F7420666163746F7279000000000000000000000000000000000000000000 PUSH1 0x0 DUP3 ADD MSTORE POP JUMP JUMPDEST PUSH1 0x0 PUSH2 0x232A PUSH1 0xB DUP4 PUSH2 0x220B JUMP JUMPDEST SWAP2 POP PUSH2 0x2335 DUP3 PUSH2 0x22F4 JUMP JUMPDEST PUSH1 0x20 DUP3 ADD SWAP1 POP SWAP2 SWAP1 POP JUMP JUMPDEST PUSH1 0x0 PUSH1 0x20 DUP3 ADD SWAP1 POP DUP2 DUP2 SUB PUSH1 0x0 DUP4 ADD MSTORE PUSH2 0x2359 DUP2 PUSH2 0x231D JUMP JUMPDEST SWAP1 POP SWAP2 SWAP1 POP JUMP JUMPDEST PUSH1 0x0 PUSH1 0xFF DUP3 AND SWAP1 POP SWAP2 SWAP1 POP JUMP JUMPDEST PUSH2 0x2376 DUP2 PUSH2 0x2360 JUMP JUMPDEST DUP2 EQ PUSH2 0x2381 JUMPI PUSH1 0x0 DUP1 REVERT JUMPDEST POP JUMP JUMPDEST PUSH1 0x0 DUP2 MLOAD SWAP1 POP PUSH2 0x2393 DUP2 PUSH2 0x236D JUMP JUMPDEST SWAP3 SWAP2 POP POP JUMP JUMPDEST PUSH1 0x0 PUSH1 0x20 DUP3 DUP5 SUB SLT ISZERO PUSH2 0x23AF JUMPI PUSH2 0x23AE PUSH2 0x1E4B JUMP JUMPDEST JUMPDEST PUSH1 0x0 PUSH2 0x23BD DUP5 DUP3 DUP6 ADD PUSH2 0x2384 JUMP JUMPDEST SWAP2 POP POP SWAP3 SWAP2 POP POP JUMP JUMPDEST PUSH32 0x4D75737420626520696E666572696F7220746F20333000000000000000000000 PUSH1 0x0 DUP3 ADD MSTORE POP JUMP JUMPDEST PUSH1 0x0 PUSH2 0x23FC PUSH1 0x16 DUP4 PUSH2 0x220B JUMP JUMPDEST SWAP2 POP PUSH2 0x2407 DUP3 PUSH2 0x23C6 JUMP JUMPDEST PUSH1 0x20 DUP3 ADD SWAP1 POP SWAP2 SWAP1 POP JUMP JUMPDEST PUSH1 0x0 PUSH1 0x20 DUP3 ADD SWAP1 POP DUP2 DUP2 SUB PUSH1 0x0 DUP4 ADD MSTORE PUSH2 0x242B DUP2 PUSH2 0x23EF JUMP JUMPDEST SWAP1 POP SWAP2 SWAP1 POP JUMP JUMPDEST PUSH32 0x4E487B7100000000000000000000000000000000000000000000000000000000 PUSH1 0x0 MSTORE PUSH1 0x11 PUSH1 0x4 MSTORE PUSH1 0x24 PUSH1 0x0 REVERT JUMPDEST PUSH1 0x0 PUSH2 0x246C DUP3 PUSH2 0x1E50 JUMP JUMPDEST SWAP2 POP PUSH2 0x2477 DUP4 PUSH2 0x1E50 JUMP JUMPDEST SWAP3 POP DUP3 DUP3 SUB SWAP1 POP DUP2 DUP2 GT ISZERO PUSH2 0x248F JUMPI PUSH2 0x248E PUSH2 0x2432 JUMP JUMPDEST JUMPDEST SWAP3 SWAP2 POP POP JUMP JUMPDEST PUSH1 0x0 DUP2 PUSH1 0x1 SHR SWAP1 POP SWAP2 SWAP1 POP JUMP JUMPDEST PUSH1 0x0 DUP1 DUP3 SWAP2 POP DUP4 SWAP1 POP JUMPDEST PUSH1 0x1 DUP6 GT ISZERO PUSH2 0x24EC JUMPI DUP1 DUP7 DIV DUP2 GT ISZERO PUSH2 0x24C8 JUMPI PUSH2 0x24C7 PUSH2 0x2432 JUMP JUMPDEST JUMPDEST PUSH1 0x1 DUP6 AND ISZERO PUSH2 0x24D7 JUMPI DUP1 DUP3 MUL SWAP2 POP JUMPDEST DUP1 DUP2 MUL SWAP1 POP PUSH2 0x24E5 DUP6 PUSH2 0x2495 JUMP JUMPDEST SWAP5 POP PUSH2 0x24AC JUMP JUMPDEST SWAP5 POP SWAP5 SWAP3 POP POP POP JUMP JUMPDEST PUSH1 0x0 DUP3 PUSH2 0x2505 JUMPI PUSH1 0x1 SWAP1 POP PUSH2 0x25C1 JUMP JUMPDEST DUP2 PUSH2 0x2513 JUMPI PUSH1 0x0 SWAP1 POP PUSH2 0x25C1 JUMP JUMPDEST DUP2 PUSH1 0x1 DUP2 EQ PUSH2 0x2529 JUMPI PUSH1 0x2 DUP2 EQ PUSH2 0x2533 JUMPI PUSH2 0x2562 JUMP JUMPDEST PUSH1 0x1 SWAP2 POP POP PUSH2 0x25C1 JUMP JUMPDEST PUSH1 0xFF DUP5 GT ISZERO PUSH2 0x2545 JUMPI PUSH2 0x2544 PUSH2 0x2432 JUMP JUMPDEST JUMPDEST DUP4 PUSH1 0x2 EXP SWAP2 POP DUP5 DUP3 GT ISZERO PUSH2 0x255C JUMPI PUSH2 0x255B PUSH2 0x2432 JUMP JUMPDEST JUMPDEST POP PUSH2 0x25C1 JUMP JUMPDEST POP PUSH1 0x20 DUP4 LT PUSH2 0x133 DUP4 LT AND PUSH1 0x4E DUP5 LT PUSH1 0xB DUP5 LT AND OR ISZERO PUSH2 0x2597 JUMPI DUP3 DUP3 EXP SWAP1 POP DUP4 DUP2 GT ISZERO PUSH2 0x2592 JUMPI PUSH2 0x2591 PUSH2 0x2432 JUMP JUMPDEST JUMPDEST PUSH2 0x25C1 JUMP JUMPDEST PUSH2 0x25A4 DUP5 DUP5 DUP5 PUSH1 0x1 PUSH2 0x24A2 JUMP JUMPDEST SWAP3 POP SWAP1 POP DUP2 DUP5 DIV DUP2 GT ISZERO PUSH2 0x25BB JUMPI PUSH2 0x25BA PUSH2 0x2432 JUMP JUMPDEST JUMPDEST DUP2 DUP2 MUL SWAP1 POP JUMPDEST SWAP4 SWAP3 POP POP POP JUMP JUMPDEST PUSH1 0x0 PUSH2 0x25D3 DUP3 PUSH2 0x1E50 JUMP JUMPDEST SWAP2 POP PUSH2 0x25DE DUP4 PUSH2 0x1E50 JUMP JUMPDEST SWAP3 POP PUSH2 0x260B PUSH32 0xFFFFFFFFFFFFFFFFFFFFFFFFFFFFFFFFFFFFFFFFFFFFFFFFFFFFFFFFFFFFFFFF DUP5 DUP5 PUSH2 0x24F5 JUMP JUMPDEST SWAP1 POP SWAP3 SWAP2 POP POP JUMP JUMPDEST PUSH32 0x416D6F756E7420746F20776974686472617720746F6F20686967680000000000 PUSH1 0x0 DUP3 ADD MSTORE POP JUMP JUMPDEST PUSH1 0x0 PUSH2 0x2649 PUSH1 0x1B DUP4 PUSH2 0x220B JUMP JUMPDEST SWAP2 POP PUSH2 0x2654 DUP3 PUSH2 0x2613 JUMP JUMPDEST PUSH1 0x20 DUP3 ADD SWAP1 POP SWAP2 SWAP1 POP JUMP JUMPDEST PUSH1 0x0 PUSH1 0x20 DUP3 ADD SWAP1 POP DUP2 DUP2 SUB PUSH1 0x0 DUP4 ADD MSTORE PUSH2 0x2678 DUP2 PUSH2 0x263C JUMP JUMPDEST SWAP1 POP SWAP2 SWAP1 POP JUMP JUMPDEST PUSH1 0x0 PUSH2 0x268A DUP3 PUSH2 0x1E50 JUMP JUMPDEST SWAP2 POP PUSH2 0x2695 DUP4 PUSH2 0x1E50 JUMP JUMPDEST SWAP3 POP DUP3 DUP3 MUL PUSH2 0x26A3 DUP2 PUSH2 0x1E50 JUMP JUMPDEST SWAP2 POP DUP3 DUP3 DIV DUP5 EQ DUP4 ISZERO OR PUSH2 0x26BA JUMPI PUSH2 0x26B9 PUSH2 0x2432 JUMP JUMPDEST JUMPDEST POP SWAP3 SWAP2 POP POP JUMP JUMPDEST PUSH32 0x4E487B7100000000000000000000000000000000000000000000000000000000 PUSH1 0x0 MSTORE PUSH1 0x12 PUSH1 0x4 MSTORE PUSH1 0x24 PUSH1 0x0 REVERT JUMPDEST PUSH1 0x0 PUSH2 0x26FB DUP3 PUSH2 0x1E50 JUMP JUMPDEST SWAP2 POP PUSH2 0x2706 DUP4 PUSH2 0x1E50 JUMP JUMPDEST SWAP3 POP DUP3 PUSH2 0x2716 JUMPI PUSH2 0x2715 PUSH2 0x26C1 JUMP JUMPDEST JUMPDEST DUP3 DUP3 DIV SWAP1 POP SWAP3 SWAP2 POP POP JUMP JUMPDEST PUSH1 0x0 PUSH2 0x272C DUP3 PUSH2 0x1E50 JUMP JUMPDEST SWAP2 POP PUSH2 0x2737 DUP4 PUSH2 0x1E50 JUMP JUMPDEST SWAP3 POP DUP3 DUP3 ADD SWAP1 POP DUP1 DUP3 GT ISZERO PUSH2 0x274F JUMPI PUSH2 0x274E PUSH2 0x2432 JUMP JUMPDEST JUMPDEST SWAP3 SWAP2 POP POP JUMP JUMPDEST PUSH32 0x4E6577207374617274426C6F636B206D757374206265206C6F77657220746861 PUSH1 0x0 DUP3 ADD MSTORE PUSH32 0x6E206E657720656E64426C6F636B000000000000000000000000000000000000 PUSH1 0x20 DUP3 ADD MSTORE POP JUMP JUMPDEST PUSH1 0x0 PUSH2 0x27B1 PUSH1 0x2E DUP4 PUSH2 0x220B JUMP JUMPDEST SWAP2 POP PUSH2 0x27BC DUP3 PUSH2 0x2755 JUMP JUMPDEST PUSH1 0x40 DUP3 ADD SWAP1 POP SWAP2 SWAP1 POP JUMP JUMPDEST PUSH1 0x0 PUSH1 0x20 DUP3 ADD SWAP1 POP DUP2 DUP2 SUB PUSH1 0x0 DUP4 ADD MSTORE PUSH2 0x27E0 DUP2 PUSH2 0x27A4 JUMP JUMPDEST SWAP1 POP SWAP2 SWAP1 POP JUMP JUMPDEST PUSH32 0x4E6577207374617274426C6F636B206D75737420626520686967686572207468 PUSH1 0x0 DUP3 ADD MSTORE PUSH32 0x616E2063757272656E7420626C6F636B00000000000000000000000000000000 PUSH1 0x20 DUP3 ADD MSTORE POP JUMP JUMPDEST PUSH1 0x0 PUSH2 0x2843 PUSH1 0x30 DUP4 PUSH2 0x220B JUMP JUMPDEST SWAP2 POP PUSH2 0x284E DUP3 PUSH2 0x27E7 JUMP JUMPDEST PUSH1 0x40 DUP3 ADD SWAP1 POP SWAP2 SWAP1 POP JUMP JUMPDEST PUSH1 0x0 PUSH1 0x20 DUP3 ADD SWAP1 POP DUP2 DUP2 SUB PUSH1 0x0 DUP4 ADD MSTORE PUSH2 0x2872 DUP2 PUSH2 0x2836 JUMP JUMPDEST SWAP1 POP SWAP2 SWAP1 POP JUMP JUMPDEST PUSH32 0x4F7065726174696F6E733A2043616E6E6F74207265636F766572207265776172 PUSH1 0x0 DUP3 ADD MSTORE PUSH32 0x6420746F6B656E00000000000000000000000000000000000000000000000000 PUSH1 0x20 DUP3 ADD MSTORE POP JUMP JUMPDEST PUSH1 0x0 PUSH2 0x28D5 PUSH1 0x27 DUP4 PUSH2 0x220B JUMP JUMPDEST SWAP2 POP PUSH2 0x28E0 DUP3 PUSH2 0x2879 JUMP JUMPDEST PUSH1 0x40 DUP3 ADD SWAP1 POP SWAP2 SWAP1 POP JUMP JUMPDEST PUSH1 0x0 PUSH1 0x20 DUP3 ADD SWAP1 POP DUP2 DUP2 SUB PUSH1 0x0 DUP4 ADD MSTORE PUSH2 0x2904 DUP2 PUSH2 0x28C8 JUMP JUMPDEST SWAP1 POP SWAP2 SWAP1 POP JUMP JUMPDEST PUSH1 0x0 DUP2 MLOAD SWAP1 POP PUSH2 0x291A DUP2 PUSH2 0x1E5A JUMP JUMPDEST SWAP3 SWAP2 POP POP JUMP JUMPDEST PUSH1 0x0 PUSH1 0x20 DUP3 DUP5 SUB SLT ISZERO PUSH2 0x2936 JUMPI PUSH2 0x2935 PUSH2 0x1E4B JUMP JUMPDEST JUMPDEST PUSH1 0x0 PUSH2 0x2944 DUP5 DUP3 DUP6 ADD PUSH2 0x290B JUMP JUMPDEST SWAP2 POP POP SWAP3 SWAP2 POP POP JUMP JUMPDEST PUSH32 0x4F7065726174696F6E733A2043616E6E6F74207265636F766572207A65726F20 PUSH1 0x0 DUP3 ADD MSTORE PUSH32 0x62616C616E636500000000000000000000000000000000000000000000000000 PUSH1 0x20 DUP3 ADD MSTORE POP JUMP JUMPDEST PUSH1 0x0 PUSH2 0x29A9 PUSH1 0x27 DUP4 PUSH2 0x220B JUMP JUMPDEST SWAP2 POP PUSH2 0x29B4 DUP3 PUSH2 0x294D JUMP JUMPDEST PUSH1 0x40 DUP3 ADD SWAP1 POP SWAP2 SWAP1 POP JUMP JUMPDEST PUSH1 0x0 PUSH1 0x20 DUP3 ADD SWAP1 POP DUP2 DUP2 SUB PUSH1 0x0 DUP4 ADD MSTORE PUSH2 0x29D8 DUP2 PUSH2 0x299C JUMP JUMPDEST SWAP1 POP SWAP2 SWAP1 POP JUMP JUMPDEST PUSH32 0x4D75737420626520736574000000000000000000000000000000000000000000 PUSH1 0x0 DUP3 ADD MSTORE POP JUMP JUMPDEST PUSH1 0x0 PUSH2 0x2A15 PUSH1 0xB DUP4 PUSH2 0x220B JUMP JUMPDEST SWAP2 POP PUSH2 0x2A20 DUP3 PUSH2 0x29DF JUMP JUMPDEST PUSH1 0x20 DUP3 ADD SWAP1 POP SWAP2 SWAP1 POP JUMP JUMPDEST PUSH1 0x0 PUSH1 0x20 DUP3 ADD SWAP1 POP DUP2 DUP2 SUB PUSH1 0x0 DUP4 ADD MSTORE PUSH2 0x2A44 DUP2 PUSH2 0x2A08 JUMP JUMPDEST SWAP1 POP SWAP2 SWAP1 POP JUMP JUMPDEST PUSH32 0x4E6577206C696D6974206D757374206265206869676865720000000000000000 PUSH1 0x0 DUP3 ADD MSTORE POP JUMP JUMPDEST PUSH1 0x0 PUSH2 0x2A81 PUSH1 0x18 DUP4 PUSH2 0x220B JUMP JUMPDEST SWAP2 POP PUSH2 0x2A8C DUP3 PUSH2 0x2A4B JUMP JUMPDEST PUSH1 0x20 DUP3 ADD SWAP1 POP SWAP2 SWAP1 POP JUMP JUMPDEST PUSH1 0x0 PUSH1 0x20 DUP3 ADD SWAP1 POP DUP2 DUP2 SUB PUSH1 0x0 DUP4 ADD MSTORE PUSH2 0x2AB0 DUP2 PUSH2 0x2A74 JUMP JUMPDEST SWAP1 POP SWAP2 SWAP1 POP JUMP JUMPDEST PUSH32 0x4465706F7369743A20416D6F756E742061626F7665206C696D69740000000000 PUSH1 0x0 DUP3 ADD MSTORE POP JUMP JUMPDEST PUSH1 0x0 PUSH2 0x2AED PUSH1 0x1B DUP4 PUSH2 0x220B JUMP JUMPDEST SWAP2 POP PUSH2 0x2AF8 DUP3 PUSH2 0x2AB7 JUMP JUMPDEST PUSH1 0x20 DUP3 ADD SWAP1 POP SWAP2 SWAP1 POP JUMP JUMPDEST PUSH1 0x0 PUSH1 0x20 DUP3 ADD SWAP1 POP DUP2 DUP2 SUB PUSH1 0x0 DUP4 ADD MSTORE PUSH2 0x2B1C DUP2 PUSH2 0x2AE0 JUMP JUMPDEST SWAP1 POP SWAP2 SWAP1 POP JUMP JUMPDEST PUSH32 0x4F776E61626C653A206E6577206F776E657220697320746865207A65726F2061 PUSH1 0x0 DUP3 ADD MSTORE PUSH32 0x6464726573730000000000000000000000000000000000000000000000000000 PUSH1 0x20 DUP3 ADD MSTORE POP JUMP JUMPDEST PUSH1 0x0 PUSH2 0x2B7F PUSH1 0x26 DUP4 PUSH2 0x220B JUMP JUMPDEST SWAP2 POP PUSH2 0x2B8A DUP3 PUSH2 0x2B23 JUMP JUMPDEST PUSH1 0x40 DUP3 ADD SWAP1 POP SWAP2 SWAP1 POP JUMP JUMPDEST PUSH1 0x0 PUSH1 0x20 DUP3 ADD SWAP1 POP DUP2 DUP2 SUB PUSH1 0x0 DUP4 ADD MSTORE PUSH2 0x2BAE DUP2 PUSH2 0x2B72 JUMP JUMPDEST SWAP1 POP SWAP2 SWAP1 POP JUMP JUMPDEST PUSH32 0x4F776E61626C653A2063616C6C6572206973206E6F7420746865206F776E6572 PUSH1 0x0 DUP3 ADD MSTORE POP JUMP JUMPDEST PUSH1 0x0 PUSH2 0x2BEB PUSH1 0x20 DUP4 PUSH2 0x220B JUMP JUMPDEST SWAP2 POP PUSH2 0x2BF6 DUP3 PUSH2 0x2BB5 JUMP JUMPDEST PUSH1 0x20 DUP3 ADD SWAP1 POP SWAP2 SWAP1 POP JUMP JUMPDEST PUSH1 0x0 PUSH1 0x20 DUP3 ADD SWAP1 POP DUP2 DUP2 SUB PUSH1 0x0 DUP4 ADD MSTORE PUSH2 0x2C1A DUP2 PUSH2 0x2BDE JUMP JUMPDEST SWAP1 POP SWAP2 SWAP1 POP JUMP JUMPDEST PUSH32 0x5265656E7472616E637947756172643A207265656E7472616E742063616C6C00 PUSH1 0x0 DUP3 ADD MSTORE POP JUMP JUMPDEST PUSH1 0x0 PUSH2 0x2C57 PUSH1 0x1F DUP4 PUSH2 0x220B JUMP JUMPDEST SWAP2 POP PUSH2 0x2C62 DUP3 PUSH2 0x2C21 JUMP JUMPDEST PUSH1 0x20 DUP3 ADD SWAP1 POP SWAP2 SWAP1 POP JUMP JUMPDEST PUSH1 0x0 PUSH1 0x20 DUP3 ADD SWAP1 POP DUP2 DUP2 SUB PUSH1 0x0 DUP4 ADD MSTORE PUSH2 0x2C86 DUP2 PUSH2 0x2C4A JUMP JUMPDEST SWAP1 POP SWAP2 SWAP1 POP JUMP JUMPDEST PUSH32 0x7265776172647320656D70747900000000000000000000000000000000000000 PUSH1 0x0 DUP3 ADD MSTORE POP JUMP JUMPDEST PUSH1 0x0 PUSH2 0x2CC3 PUSH1 0xD DUP4 PUSH2 0x220B JUMP JUMPDEST SWAP2 POP PUSH2 0x2CCE DUP3 PUSH2 0x2C8D JUMP JUMPDEST PUSH1 0x20 DUP3 ADD SWAP1 POP SWAP2 SWAP1 POP JUMP JUMPDEST PUSH1 0x0 PUSH1 0x20 DUP3 ADD SWAP1 POP DUP2 DUP2 SUB PUSH1 0x0 DUP4 ADD MSTORE PUSH2 0x2CF2 DUP2 PUSH2 0x2CB6 JUMP JUMPDEST SWAP1 POP SWAP2 SWAP1 POP JUMP JUMPDEST PUSH1 0x0 PUSH1 0x40 DUP3 ADD SWAP1 POP PUSH2 0x2D0E PUSH1 0x0 DUP4 ADD DUP6 PUSH2 0x20BB JUMP JUMPDEST PUSH2 0x2D1B PUSH1 0x20 DUP4 ADD DUP5 PUSH2 0x1F3E JUMP JUMPDEST SWAP4 SWAP3 POP POP POP JUMP JUMPDEST PUSH1 0x0 DUP2 MLOAD SWAP1 POP PUSH2 0x2D31 DUP2 PUSH2 0x2125 JUMP JUMPDEST SWAP3 SWAP2 POP POP JUMP JUMPDEST PUSH1 0x0 PUSH1 0x20 DUP3 DUP5 SUB SLT ISZERO PUSH2 0x2D4D JUMPI PUSH2 0x2D4C PUSH2 0x1E4B JUMP JUMPDEST JUMPDEST PUSH1 0x0 PUSH2 0x2D5B DUP5 DUP3 DUP6 ADD PUSH2 0x2D22 JUMP JUMPDEST SWAP2 POP POP SWAP3 SWAP2 POP POP JUMP JUMPDEST PUSH32 0x5361666545524332303A204552433230206F7065726174696F6E20646964206E PUSH1 0x0 DUP3 ADD MSTORE PUSH32 0x6F74207375636365656400000000000000000000000000000000000000000000 PUSH1 0x20 DUP3 ADD MSTORE POP JUMP JUMPDEST PUSH1 0x0 PUSH2 0x2DC0 PUSH1 0x2A DUP4 PUSH2 0x220B JUMP JUMPDEST SWAP2 POP PUSH2 0x2DCB DUP3 PUSH2 0x2D64 JUMP JUMPDEST PUSH1 0x40 DUP3 ADD SWAP1 POP SWAP2 SWAP1 POP JUMP JUMPDEST PUSH1 0x0 PUSH1 0x20 DUP3 ADD SWAP1 POP DUP2 DUP2 SUB PUSH1 0x0 DUP4 ADD MSTORE PUSH2 0x2DEF DUP2 PUSH2 0x2DB3 JUMP JUMPDEST SWAP1 POP SWAP2 SWAP1 POP JUMP JUMPDEST PUSH1 0x0 PUSH1 0x60 DUP3 ADD SWAP1 POP PUSH2 0x2E0B PUSH1 0x0 DUP4 ADD DUP7 PUSH2 0x20BB JUMP JUMPDEST PUSH2 0x2E18 PUSH1 0x20 DUP4 ADD DUP6 PUSH2 0x20BB JUMP JUMPDEST PUSH2 0x2E25 PUSH1 0x40 DUP4 ADD DUP5 PUSH2 0x1F3E JUMP JUMPDEST SWAP5 SWAP4 POP POP POP POP JUMP JUMPDEST PUSH32 0x416464726573733A20696E73756666696369656E742062616C616E636520666F PUSH1 0x0 DUP3 ADD MSTORE PUSH32 0x722063616C6C0000000000000000000000000000000000000000000000000000 PUSH1 0x20 DUP3 ADD MSTORE POP JUMP JUMPDEST PUSH1 0x0 PUSH2 0x2E89 PUSH1 0x26 DUP4 PUSH2 0x220B JUMP JUMPDEST SWAP2 POP PUSH2 0x2E94 DUP3 PUSH2 0x2E2D JUMP JUMPDEST PUSH1 0x40 DUP3 ADD SWAP1 POP SWAP2 SWAP1 POP JUMP JUMPDEST PUSH1 0x0 PUSH1 0x20 DUP3 ADD SWAP1 POP DUP2 DUP2 SUB PUSH1 0x0 DUP4 ADD MSTORE PUSH2 0x2EB8 DUP2 PUSH2 0x2E7C JUMP JUMPDEST SWAP1 POP SWAP2 SWAP1 POP JUMP JUMPDEST PUSH1 0x0 DUP2 MLOAD SWAP1 POP SWAP2 SWAP1 POP JUMP JUMPDEST PUSH1 0x0 DUP2 SWAP1 POP SWAP3 SWAP2 POP POP JUMP JUMPDEST PUSH1 0x0 JUMPDEST DUP4 DUP2 LT ISZERO PUSH2 0x2EF3 JUMPI DUP1 DUP3 ADD MLOAD DUP2 DUP5 ADD MSTORE PUSH1 0x20 DUP2 ADD SWAP1 POP PUSH2 0x2ED8 JUMP JUMPDEST PUSH1 0x0 DUP5 DUP5 ADD MSTORE POP POP POP POP JUMP JUMPDEST PUSH1 0x0 PUSH2 0x2F0A DUP3 PUSH2 0x2EBF JUMP JUMPDEST PUSH2 0x2F14 DUP2 DUP6 PUSH2 0x2ECA JUMP JUMPDEST SWAP4 POP PUSH2 0x2F24 DUP2 DUP6 PUSH1 0x20 DUP7 ADD PUSH2 0x2ED5 JUMP JUMPDEST DUP1 DUP5 ADD SWAP2 POP POP SWAP3 SWAP2 POP POP JUMP JUMPDEST PUSH1 0x0 PUSH2 0x2F3C DUP3 DUP5 PUSH2 0x2EFF JUMP JUMPDEST SWAP2 POP DUP2 SWAP1 POP SWAP3 SWAP2 POP POP JUMP JUMPDEST PUSH32 0x416464726573733A2063616C6C20746F206E6F6E2D636F6E7472616374000000 PUSH1 0x0 DUP3 ADD MSTORE POP JUMP JUMPDEST PUSH1 0x0 PUSH2 0x2F7D PUSH1 0x1D DUP4 PUSH2 0x220B JUMP JUMPDEST SWAP2 POP PUSH2 0x2F88 DUP3 PUSH2 0x2F47 JUMP JUMPDEST PUSH1 0x20 DUP3 ADD SWAP1 POP SWAP2 SWAP1 POP JUMP JUMPDEST PUSH1 0x0 PUSH1 0x20 DUP3 ADD SWAP1 POP DUP2 DUP2 SUB PUSH1 0x0 DUP4 ADD MSTORE PUSH2 0x2FAC DUP2 PUSH2 0x2F70 JUMP JUMPDEST SWAP1 POP SWAP2 SWAP1 POP JUMP JUMPDEST PUSH1 0x0 DUP2 MLOAD SWAP1 POP SWAP2 SWAP1 POP JUMP JUMPDEST PUSH1 0x0 PUSH1 0x1F NOT PUSH1 0x1F DUP4 ADD AND SWAP1 POP SWAP2 SWAP1 POP JUMP JUMPDEST PUSH1 0x0 PUSH2 0x2FDA DUP3 PUSH2 0x2FB3 JUMP JUMPDEST PUSH2 0x2FE4 DUP2 DUP6 PUSH2 0x220B JUMP JUMPDEST SWAP4 POP PUSH2 0x2FF4 DUP2 DUP6 PUSH1 0x20 DUP7 ADD PUSH2 0x2ED5 JUMP JUMPDEST PUSH2 0x2FFD DUP2 PUSH2 0x2FBE JUMP JUMPDEST DUP5 ADD SWAP2 POP POP SWAP3 SWAP2 POP POP JUMP JUMPDEST PUSH1 0x0 PUSH1 0x20 DUP3 ADD SWAP1 POP DUP2 DUP2 SUB PUSH1 0x0 DUP4 ADD MSTORE PUSH2 0x3022 DUP2 DUP5 PUSH2 0x2FCF JUMP JUMPDEST SWAP1 POP SWAP3 SWAP2 POP POP JUMP INVALID LOG2 PUSH5 0x6970667358 0x22 SLT KECCAK256 0xCB BASEFEE PUSH24 0x77A23C463305C7C8096B486FC683D1B507F6CFDAA9404EAB CHAINID ADDRESS EXTCODEHASH 0xEF CREATE PUSH5 0x736F6C6343 STOP ADDMOD GT STOP CALLER "},"methodIdentifiers":{"PRECISION_FACTOR()":"ccd34cd5","SMART_CHEF_FACTORY()":"bd617191","accTokenPerShare()":"8f662915","bonusEndBlock()":"1aed6553","deposit(uint256)":"b6b55f25","emergencyRewardWithdraw(uint256)":"3279beab","emergencyWithdraw()":"db2e21bc","hasUserLimit()":"92e8990e","initialize(address,address,uint256,uint256,uint256,uint256,uint256,address)":"2aa2c381","isInitialized()":"392e53cd","lastRewardBlock()":"a9f8d181","numberBlocksForUserLimit()":"8ad1071b","owner()":"8da5cb5b","pendingReward(address)":"f40f0f52","poolLimitPerUser()":"66fe9f8a","recoverToken(address)":"9be65a60","renounceOwnership()":"715018a6","rewardPerBlock()":"8ae39cac","rewardToken()":"f7c618c1","stakedToken()":"cc7a262e","stakedTokenAmount()":"9c367bc2","startBlock()":"48cd4cb1","stopReward()":"80dc0672","transferOwnership(address)":"f2fde38b","updatePoolLimitPerUser(bool,uint256)":"a0b40905","updateRewardPerBlock(uint256)":"01f8a976","updateStartAndEndBlocks(uint256,uint256)":"9513997f","userInfo(address)":"1959a002","userLimit()":"4a7c01ec","withdraw(uint256)":"2e1a7d4d"}}}}}