{
  "_format": "hh-sol-artifact-1",
  "contractName": "SmartChefInitializable",
  "sourceName": "contracts/SmartChefInitializable.sol",
  "abi": [
    {
      "inputs": [],
      "stateMutability": "nonpayable",
      "type": "constructor"
    },
    {
      "anonymous": false,
      "inputs": [
        {
          "indexed": true,
          "internalType": "address",
          "name": "user",
          "type": "address"
        },
        {
          "indexed": false,
          "internalType": "uint256",
          "name": "amount",
          "type": "uint256"
        }
      ],
      "name": "Deposit",
      "type": "event"
    },
    {
      "anonymous": false,
      "inputs": [
        {
          "indexed": true,
          "internalType": "address",
          "name": "user",
          "type": "address"
        },
        {
          "indexed": false,
          "internalType": "uint256",
          "name": "amount",
          "type": "uint256"
        }
      ],
      "name": "EmergencyWithdraw",
      "type": "event"
    },
    {
      "anonymous": false,
      "inputs": [
        {
          "indexed": false,
          "internalType": "uint256",
          "name": "poolLimitPerUser",
          "type": "uint256"
        }
      ],
      "name": "NewPoolLimit",
      "type": "event"
    },
    {
      "anonymous": false,
      "inputs": [
        {
          "indexed": false,
          "internalType": "uint256",
          "name": "rewardPerBlock",
          "type": "uint256"
        }
      ],
      "name": "NewRewardPerBlock",
      "type": "event"
    },
    {
      "anonymous": false,
      "inputs": [
        {
          "indexed": false,
          "internalType": "uint256",
          "name": "startBlock",
          "type": "uint256"
        },
        {
          "indexed": false,
          "internalType": "uint256",
          "name": "endBlock",
          "type": "uint256"
        }
      ],
      "name": "NewStartAndEndBlocks",
      "type": "event"
    },
    {
      "anonymous": false,
      "inputs": [
        {
          "indexed": true,
          "internalType": "address",
          "name": "previousOwner",
          "type": "address"
        },
        {
          "indexed": true,
          "internalType": "address",
          "name": "newOwner",
          "type": "address"
        }
      ],
      "name": "OwnershipTransferred",
      "type": "event"
    },
    {
      "anonymous": false,
      "inputs": [
        {
          "indexed": false,
          "internalType": "uint256",
          "name": "blockNumber",
          "type": "uint256"
        }
      ],
      "name": "RewardsStop",
      "type": "event"
    },
    {
      "anonymous": false,
      "inputs": [
        {
          "indexed": true,
          "internalType": "address",
          "name": "token",
          "type": "address"
        },
        {
          "indexed": false,
          "internalType": "uint256",
          "name": "amount",
          "type": "uint256"
        }
      ],
      "name": "TokenRecovery",
      "type": "event"
    },
    {
      "anonymous": false,
      "inputs": [
        {
          "indexed": true,
          "internalType": "address",
          "name": "user",
          "type": "address"
        },
        {
          "indexed": false,
          "internalType": "uint256",
          "name": "amount",
          "type": "uint256"
        }
      ],
      "name": "Withdraw",
      "type": "event"
    },
    {
      "inputs": [],
      "name": "PRECISION_FACTOR",
      "outputs": [
        {
          "internalType": "uint256",
          "name": "",
          "type": "uint256"
        }
      ],
      "stateMutability": "view",
      "type": "function"
    },
    {
      "inputs": [],
      "name": "SMART_CHEF_FACTORY",
      "outputs": [
        {
          "internalType": "address",
          "name": "",
          "type": "address"
        }
      ],
      "stateMutability": "view",
      "type": "function"
    },
    {
      "inputs": [],
      "name": "accTokenPerShare",
      "outputs": [
        {
          "internalType": "uint256",
          "name": "",
          "type": "uint256"
        }
      ],
      "stateMutability": "view",
      "type": "function"
    },
    {
      "inputs": [],
      "name": "bonusEndBlock",
      "outputs": [
        {
          "internalType": "uint256",
          "name": "",
          "type": "uint256"
        }
      ],
      "stateMutability": "view",
      "type": "function"
    },
    {
      "inputs": [
        {
          "internalType": "uint256",
          "name": "_amount",
          "type": "uint256"
        }
      ],
      "name": "deposit",
      "outputs": [],
      "stateMutability": "nonpayable",
      "type": "function"
    },
    {
      "inputs": [
        {
          "internalType": "uint256",
          "name": "_amount",
          "type": "uint256"
        }
      ],
      "name": "emergencyRewardWithdraw",
      "outputs": [],
      "stateMutability": "nonpayable",
      "type": "function"
    },
    {
      "inputs": [],
      "name": "emergencyWithdraw",
      "outputs": [],
      "stateMutability": "nonpayable",
      "type": "function"
    },
    {
      "inputs": [],
      "name": "hasUserLimit",
      "outputs": [
        {
          "internalType": "bool",
          "name": "",
          "type": "bool"
        }
      ],
      "stateMutability": "view",
      "type": "function"
    },
    {
      "inputs": [
        {
          "internalType": "contract IERC20Metadata",
          "name": "_stakedToken",
          "type": "address"
        },
        {
          "internalType": "contract IERC20Metadata",
          "name": "_rewardToken",
          "type": "address"
        },
        {
          "internalType": "uint256",
          "name": "_rewardPerBlock",
          "type": "uint256"
        },
        {
          "internalType": "uint256",
          "name": "_startBlock",
          "type": "uint256"
        },
        {
          "internalType": "uint256",
          "name": "_bonusEndBlock",
          "type": "uint256"
        },
        {
          "internalType": "uint256",
          "name": "_poolLimitPerUser",
          "type": "uint256"
        },
        {
          "internalType": "uint256",
          "name": "_numberBlocksForUserLimit",
          "type": "uint256"
        },
        {
          "internalType": "address",
          "name": "_admin",
          "type": "address"
        }
      ],
      "name": "initialize",
      "outputs": [],
      "stateMutability": "nonpayable",
      "type": "function"
    },
    {
      "inputs": [],
      "name": "isInitialized",
      "outputs": [
        {
          "internalType": "bool",
          "name": "",
          "type": "bool"
        }
      ],
      "stateMutability": "view",
      "type": "function"
    },
    {
      "inputs": [],
      "name": "lastRewardBlock",
      "outputs": [
        {
          "internalType": "uint256",
          "name": "",
          "type": "uint256"
        }
      ],
      "stateMutability": "view",
      "type": "function"
    },
    {
      "inputs": [],
      "name": "numberBlocksForUserLimit",
      "outputs": [
        {
          "internalType": "uint256",
          "name": "",
          "type": "uint256"
        }
      ],
      "stateMutability": "view",
      "type": "function"
    },
    {
      "inputs": [],
      "name": "owner",
      "outputs": [
        {
          "internalType": "address",
          "name": "",
          "type": "address"
        }
      ],
      "stateMutability": "view",
      "type": "function"
    },
    {
      "inputs": [
        {
          "internalType": "address",
          "name": "_user",
          "type": "address"
        }
      ],
      "name": "pendingReward",
      "outputs": [
        {
          "internalType": "uint256",
          "name": "",
          "type": "uint256"
        }
      ],
      "stateMutability": "view",
      "type": "function"
    },
    {
      "inputs": [],
      "name": "poolLimitPerUser",
      "outputs": [
        {
          "internalType": "uint256",
          "name": "",
          "type": "uint256"
        }
      ],
      "stateMutability": "view",
      "type": "function"
    },
    {
      "inputs": [
        {
          "internalType": "address",
          "name": "_token",
          "type": "address"
        }
      ],
      "name": "recoverToken",
      "outputs": [],
      "stateMutability": "nonpayable",
      "type": "function"
    },
    {
      "inputs": [],
      "name": "renounceOwnership",
      "outputs": [],
      "stateMutability": "nonpayable",
      "type": "function"
    },
    {
      "inputs": [],
      "name": "rewardPerBlock",
      "outputs": [
        {
          "internalType": "uint256",
          "name": "",
          "type": "uint256"
        }
      ],
      "stateMutability": "view",
      "type": "function"
    },
    {
      "inputs": [],
      "name": "rewardToken",
      "outputs": [
        {
          "internalType": "contract IERC20Metadata",
          "name": "",
          "type": "address"
        }
      ],
      "stateMutability": "view",
      "type": "function"
    },
    {
      "inputs": [],
      "name": "stakedToken",
      "outputs": [
        {
          "internalType": "contract IERC20Metadata",
          "name": "",
          "type": "address"
        }
      ],
      "stateMutability": "view",
      "type": "function"
    },
    {
      "inputs": [],
      "name": "stakedTokenAmount",
      "outputs": [
        {
          "internalType": "uint256",
          "name": "",
          "type": "uint256"
        }
      ],
      "stateMutability": "view",
      "type": "function"
    },
    {
      "inputs": [],
      "name": "startBlock",
      "outputs": [
        {
          "internalType": "uint256",
          "name": "",
          "type": "uint256"
        }
      ],
      "stateMutability": "view",
      "type": "function"
    },
    {
      "inputs": [],
      "name": "stopReward",
      "outputs": [],
      "stateMutability": "nonpayable",
      "type": "function"
    },
    {
      "inputs": [
        {
          "internalType": "address",
          "name": "newOwner",
          "type": "address"
        }
      ],
      "name": "transferOwnership",
      "outputs": [],
      "stateMutability": "nonpayable",
      "type": "function"
    },
    {
      "inputs": [
        {
          "internalType": "bool",
          "name": "_userLimit",
          "type": "bool"
        },
        {
          "internalType": "uint256",
          "name": "_poolLimitPerUser",
          "type": "uint256"
        }
      ],
      "name": "updatePoolLimitPerUser",
      "outputs": [],
      "stateMutability": "nonpayable",
      "type": "function"
    },
    {
      "inputs": [
        {
          "internalType": "uint256",
          "name": "_rewardPerBlock",
          "type": "uint256"
        }
      ],
      "name": "updateRewardPerBlock",
      "outputs": [],
      "stateMutability": "nonpayable",
      "type": "function"
    },
    {
      "inputs": [
        {
          "internalType": "uint256",
          "name": "_startBlock",
          "type": "uint256"
        },
        {
          "internalType": "uint256",
          "name": "_bonusEndBlock",
          "type": "uint256"
        }
      ],
      "name": "updateStartAndEndBlocks",
      "outputs": [],
      "stateMutability": "nonpayable",
      "type": "function"
    },
    {
      "inputs": [
        {
          "internalType": "address",
          "name": "",
          "type": "address"
        }
      ],
      "name": "userInfo",
      "outputs": [
        {
          "internalType": "uint256",
          "name": "amount",
          "type": "uint256"
        },
        {
          "internalType": "uint256",
          "name": "rewardDebt",
          "type": "uint256"
        }
      ],
      "stateMutability": "view",
      "type": "function"
    },
    {
      "inputs": [],
      "name": "userLimit",
      "outputs": [
        {
          "internalType": "bool",
          "name": "",
          "type": "bool"
        }
      ],
      "stateMutability": "view",
      "type": "function"
    },
    {
      "inputs": [
        {
          "internalType": "uint256",
          "name": "_amount",
          "type": "uint256"
        }
      ],
      "name": "withdraw",
      "outputs": [],
      "stateMutability": "nonpayable",
      "type": "function"
    }
  ],
  "bytecode": "0x60a06040523480156200001157600080fd5b5062000032620000266200007360201b60201c565b6200007b60201b60201c565b600180819055503373ffffffffffffffffffffffffffffffffffffffff1660808173ffffffffffffffffffffffffffffffffffffffff16815250506200013f565b600033905090565b60008060009054906101000a900473ffffffffffffffffffffffffffffffffffffffff169050816000806101000a81548173ffffffffffffffffffffffffffffffffffffffff021916908373ffffffffffffffffffffffffffffffffffffffff1602179055508173ffffffffffffffffffffffffffffffffffffffff168173ffffffffffffffffffffffffffffffffffffffff167f8be0079c531659141344cd1fd0a4f28419497f9722a3daafe3b4186f6b6457e060405160405180910390a35050565b6080516130606200016260003960008181610643015261119a01526130606000f3fe608060405234801561001057600080fd5b50600436106101da5760003560e01c80638f66291511610104578063b6b55f25116100a2578063db2e21bc11610071578063db2e21bc146104c6578063f2fde38b146104d0578063f40f0f52146104ec578063f7c618c11461051c576101da565b8063b6b55f2514610450578063bd6171911461046c578063cc7a262e1461048a578063ccd34cd5146104a8576101da565b80639be65a60116100de5780639be65a60146103dc5780639c367bc2146103f8578063a0b4090514610416578063a9f8d18114610432576101da565b80638f6629151461038457806392e8990e146103a25780639513997f146103c0576101da565b806348cd4cb11161017c57806380dc06721161014b57806380dc0672146103205780638ad1071b1461032a5780638ae39cac146103485780638da5cb5b14610366576101da565b806348cd4cb1146102bc5780634a7c01ec146102da57806366fe9f8a146102f8578063715018a614610316576101da565b80632aa2c381116101b85780632aa2c3811461024a5780632e1a7d4d146102665780633279beab14610282578063392e53cd1461029e576101da565b806301f8a976146101df5780631959a002146101fb5780631aed65531461022c575b600080fd5b6101f960048036038101906101f49190611e86565b61053a565b005b61021560048036038101906102109190611f11565b6105c7565b604051610223929190611f4d565b60405180910390f35b6102346105eb565b6040516102419190611f76565b60405180910390f35b610264600480360381019061025f9190611fcf565b6105f1565b005b610280600480360381019061027b9190611e86565b6108cb565b005b61029c60048036038101906102979190611e86565b610a57565b005b6102a6610a6b565b6040516102b391906120a0565b60405180910390f35b6102c4610a7e565b6040516102d19190611f76565b60405180910390f35b6102e2610a84565b6040516102ef91906120a0565b60405180910390f35b610300610a97565b60405161030d9190611f76565b60405180910390f35b61031e610a9d565b005b610328610ab1565b005b610332610ac2565b60405161033f9190611f76565b60405180910390f35b610350610ac8565b60405161035d9190611f76565b60405180910390f35b61036e610ace565b60405161037b91906120ca565b60405180910390f35b61038c610af7565b6040516103999190611f76565b60405180910390f35b6103aa610afd565b6040516103b791906120a0565b60405180910390f35b6103da60048036038101906103d591906120e5565b610b40565b005b6103f660048036038101906103f19190611f11565b610c64565b005b610400610ea0565b60405161040d9190611f76565b60405180910390f35b610430600480360381019061042b9190612151565b610ea6565b005b61043a610fb3565b6040516104479190611f76565b60405180910390f35b61046a60048036038101906104659190611e86565b610fb9565b005b610474611198565b60405161048191906120ca565b60405180910390f35b6104926111bc565b60405161049f91906121f0565b60405180910390f35b6104b06111e2565b6040516104bd9190611f76565b60405180910390f35b6104ce6111e8565b005b6104ea60048036038101906104e59190611f11565b6112c1565b005b61050660048036038101906105019190611f11565b611344565b6040516105139190611f76565b60405180910390f35b61052461145d565b60405161053191906121f0565b60405180910390f35b610542611483565b6005544310610586576040517f08c379a000000000000000000000000000000000000000000000000000000000815260040161057d90612268565b60405180910390fd5b806009819055507f0c4d677eef92893ac7ec52faf8140fc6c851ab4736302b4f3a89dfb20696a0df816040516105bc9190611f76565b60405180910390a150565b600e6020528060005260406000206000915090508060000154908060010154905082565b60045481565b600260019054906101000a900460ff1615610641576040517f08c379a0000000000000000000000000000000000000000000000000000000008152600401610638906122d4565b60405180910390fd5b7f000000000000000000000000000000000000000000000000000000000000000073ffffffffffffffffffffffffffffffffffffffff163373ffffffffffffffffffffffffffffffffffffffff16146106cf576040517f08c379a00000000000000000000000000000000000000000000000000000000081526004016106c690612340565b60405180910390fd5b6001600260016101000a81548160ff02191690831515021790555087600c60006101000a81548173ffffffffffffffffffffffffffffffffffffffff021916908373ffffffffffffffffffffffffffffffffffffffff16021790555086600b60006101000a81548173ffffffffffffffffffffffffffffffffffffffff021916908373ffffffffffffffffffffffffffffffffffffffff16021790555085600981905550846005819055508360048190555060008311156107b4576001600260006101000a81548160ff02191690831515021790555082600781905550816008819055505b6000600b60009054906101000a900473ffffffffffffffffffffffffffffffffffffffff1673ffffffffffffffffffffffffffffffffffffffff1663313ce5676040518163ffffffff1660e01b8152600401602060405180830381865afa158015610823573d6000803e3d6000fd5b505050506040513d601f19601f820116820180604052508101906108479190612399565b60ff169050601e811061088f576040517f08c379a000000000000000000000000000000000000000000000000000000000815260040161088690612412565b60405180910390fd5b80601e61089c9190612461565b600a6108a891906125c8565b600a819055506005546006819055506108c0826112c1565b505050505050505050565b6108d3611501565b6000600e60003373ffffffffffffffffffffffffffffffffffffffff1673ffffffffffffffffffffffffffffffffffffffff1681526020019081526020016000209050818160000154101561095d576040517f08c379a00000000000000000000000000000000000000000000000000000000081526004016109549061265f565b60405180910390fd5b610965611550565b60008160010154600a546003548460000154610981919061267f565b61098b91906126f0565b6109959190612461565b905060008311156109c2578282600001546109b09190612461565b82600001819055506109c1836115cc565b5b60008111156109d5576109d481611630565b5b600a5460035483600001546109ea919061267f565b6109f491906126f0565b82600101819055503373ffffffffffffffffffffffffffffffffffffffff167f884edad9ce6fa2440d8a54cc123490eb96d2768479d49ff9c7366125a942436484604051610a429190611f76565b60405180910390a25050610a546117d8565b50565b610a5f611483565b610a6881611630565b50565b600260019054906101000a900460ff1681565b60055481565b600260009054906101000a900460ff1681565b60075481565b610aa5611483565b610aaf60006117e1565b565b610ab9611483565b43600481905550565b60085481565b60095481565b60008060009054906101000a900473ffffffffffffffffffffffffffffffffffffffff16905090565b60035481565b6000600260009054906101000a900460ff161580610b2a5750600854600554610b269190612721565b4310155b15610b385760009050610b3d565b600190505b90565b610b48611483565b6005544310610b8c576040517f08c379a0000000000000000000000000000000000000000000000000000000008152600401610b8390612268565b60405180910390fd5b808210610bce576040517f08c379a0000000000000000000000000000000000000000000000000000000008152600401610bc5906127c7565b60405180910390fd5b814310610c10576040517f08c379a0000000000000000000000000000000000000000000000000000000008152600401610c0790612859565b60405180910390fd5b81600581905550806004819055506005546006819055507f7cd0ab87d19036f3dfadadb232c78aa4879dda3f0c994a9d637532410ee2ce068282604051610c58929190611f4d565b60405180910390a15050565b610c6c611483565b600b60009054906101000a900473ffffffffffffffffffffffffffffffffffffffff1673ffffffffffffffffffffffffffffffffffffffff168173ffffffffffffffffffffffffffffffffffffffff1603610cfc576040517f08c379a0000000000000000000000000000000000000000000000000000000008152600401610cf3906128eb565b60405180910390fd5b60008173ffffffffffffffffffffffffffffffffffffffff166370a08231306040518263ffffffff1660e01b8152600401610d3791906120ca565b602060405180830381865afa158015610d54573d6000803e3d6000fd5b505050506040513d601f19601f82011682018060405250810190610d789190612920565b9050600c60009054906101000a900473ffffffffffffffffffffffffffffffffffffffff1673ffffffffffffffffffffffffffffffffffffffff168273ffffffffffffffffffffffffffffffffffffffff1603610de057600d5481610ddd9190612461565b90505b60008103610e23576040517f08c379a0000000000000000000000000000000000000000000000000000000008152600401610e1a906129bf565b60405180910390fd5b610e4e33828473ffffffffffffffffffffffffffffffffffffffff166118a59092919063ffffffff16565b8173ffffffffffffffffffffffffffffffffffffffff167f14f11966a996e0629572e51064726d2057a80fbd34efc066682c06a71dbb6e9882604051610e949190611f76565b60405180910390a25050565b600d5481565b610eae611483565b600260009054906101000a900460ff16610efd576040517f08c379a0000000000000000000000000000000000000000000000000000000008152600401610ef490612a2b565b60405180910390fd5b8115610f53576007548111610f47576040517f08c379a0000000000000000000000000000000000000000000000000000000008152600401610f3e90612a97565b60405180910390fd5b80600781905550610f76565b81600260006101000a81548160ff02191690831515021790555060006007819055505b7f241f67ee5f41b7a5cabf911367329be7215900f602ebfc47f89dce2a6bcd847c600754604051610fa79190611f76565b60405180910390a15050565b60065481565b610fc1611501565b6000600e60003373ffffffffffffffffffffffffffffffffffffffff1673ffffffffffffffffffffffffffffffffffffffff168152602001908152602001600020905061100c610afd565b600260006101000a81548160ff021916908315150217905550600260009054906101000a900460ff161580611052575060075481600001548361104f9190612721565b11155b611091576040517f08c379a000000000000000000000000000000000000000000000000000000000815260040161108890612b03565b60405180910390fd5b611099611550565b6000816000015411156110ed5760008160010154600a5460035484600001546110c2919061267f565b6110cc91906126f0565b6110d69190612461565b905060008111156110eb576110ea81611630565b5b505b6000821115611117576110ff8261192b565b816000015461110e9190612721565b81600001819055505b600a54600354826000015461112c919061267f565b61113691906126f0565b81600101819055503373ffffffffffffffffffffffffffffffffffffffff167fe1fffcc4923d04b559f4d29a8bfc6cda04eb5b0d3c460751c2402c5c5cc9109c836040516111849190611f76565b60405180910390a2506111956117d8565b50565b7f000000000000000000000000000000000000000000000000000000000000000081565b600c60009054906101000a900473ffffffffffffffffffffffffffffffffffffffff1681565b600a5481565b6111f0611501565b6000600e60003373ffffffffffffffffffffffffffffffffffffffff1673ffffffffffffffffffffffffffffffffffffffff16815260200190815260200160002090506000816000015490506000826000018190555060008260010181905550600081111561126357611262816115cc565b5b3373ffffffffffffffffffffffffffffffffffffffff167f5fafa99d0643513820be26656b45130b01e1c03062e1266bf36f88cbd3bd969583600001546040516112ad9190611f76565b60405180910390a250506112bf6117d8565b565b6112c9611483565b600073ffffffffffffffffffffffffffffffffffffffff168173ffffffffffffffffffffffffffffffffffffffff1603611338576040517f08c379a000000000000000000000000000000000000000000000000000000000815260040161132f90612b95565b60405180910390fd5b611341816117e1565b50565b600080600e60008473ffffffffffffffffffffffffffffffffffffffff1673ffffffffffffffffffffffffffffffffffffffff16815260200190815260200160002090506006544311801561139c57506000600d5414155b156114265760006113af60065443611ade565b90506000600954826113c1919061267f565b90506000600d54600a54836113d6919061267f565b6113e091906126f0565b6003546113ed9190612721565b90508360010154600a54828660000154611407919061267f565b61141191906126f0565b61141b9190612461565b945050505050611458565b8060010154600a546003548360000154611440919061267f565b61144a91906126f0565b6114549190612461565b9150505b919050565b600b60009054906101000a900473ffffffffffffffffffffffffffffffffffffffff1681565b61148b611b25565b73ffffffffffffffffffffffffffffffffffffffff166114a9610ace565b73ffffffffffffffffffffffffffffffffffffffff16146114ff576040517f08c379a00000000000000000000000000000000000000000000000000000000081526004016114f690612c01565b60405180910390fd5b565b600260015403611546576040517f08c379a000000000000000000000000000000000000000000000000000000000815260040161153d90612c6d565b60405180910390fd5b6002600181905550565b6006544311156115ca576000600d540361157057436006819055506115ca565b600061157e60065443611ade565b9050600060095482611590919061267f565b9050600d54600a54826115a3919061267f565b6115ad91906126f0565b6003546115ba9190612721565b6003819055504360068190555050505b565b80600d546115da9190612461565b600d8190555061162d3382600c60009054906101000a900473ffffffffffffffffffffffffffffffffffffffff1673ffffffffffffffffffffffffffffffffffffffff166118a59092919063ffffffff16565b50565b61167d3382600b60009054906101000a900473ffffffffffffffffffffffffffffffffffffffff1673ffffffffffffffffffffffffffffffffffffffff166118a59092919063ffffffff16565b600c60009054906101000a900473ffffffffffffffffffffffffffffffffffffffff1673ffffffffffffffffffffffffffffffffffffffff16600b60009054906101000a900473ffffffffffffffffffffffffffffffffffffffff1673ffffffffffffffffffffffffffffffffffffffff16036117d557600d54600c60009054906101000a900473ffffffffffffffffffffffffffffffffffffffff1673ffffffffffffffffffffffffffffffffffffffff166370a08231306040518263ffffffff1660e01b815260040161175291906120ca565b602060405180830381865afa15801561176f573d6000803e3d6000fd5b505050506040513d601f19601f820116820180604052508101906117939190612920565b10156117d4576040517f08c379a00000000000000000000000000000000000000000000000000000000081526004016117cb90612cd9565b60405180910390fd5b5b50565b60018081905550565b60008060009054906101000a900473ffffffffffffffffffffffffffffffffffffffff169050816000806101000a81548173ffffffffffffffffffffffffffffffffffffffff021916908373ffffffffffffffffffffffffffffffffffffffff1602179055508173ffffffffffffffffffffffffffffffffffffffff168173ffffffffffffffffffffffffffffffffffffffff167f8be0079c531659141344cd1fd0a4f28419497f9722a3daafe3b4186f6b6457e060405160405180910390a35050565b6119268363a9059cbb60e01b84846040516024016118c4929190612cf9565b604051602081830303815290604052907bffffffffffffffffffffffffffffffffffffffffffffffffffffffff19166020820180517bffffffffffffffffffffffffffffffffffffffffffffffffffffffff8381831617835250505050611b2d565b505050565b600080600c60009054906101000a900473ffffffffffffffffffffffffffffffffffffffff1673ffffffffffffffffffffffffffffffffffffffff166370a08231306040518263ffffffff1660e01b815260040161198991906120ca565b602060405180830381865afa1580156119a6573d6000803e3d6000fd5b505050506040513d601f19601f820116820180604052508101906119ca9190612920565b9050611a1b333085600c60009054906101000a900473ffffffffffffffffffffffffffffffffffffffff1673ffffffffffffffffffffffffffffffffffffffff16611bf5909392919063ffffffff16565b80600c60009054906101000a900473ffffffffffffffffffffffffffffffffffffffff1673ffffffffffffffffffffffffffffffffffffffff166370a08231306040518263ffffffff1660e01b8152600401611a7791906120ca565b602060405180830381865afa158015611a94573d6000803e3d6000fd5b505050506040513d601f19601f82011682018060405250810190611ab89190612920565b611ac29190612461565b915081600d54611ad29190612721565b600d8190555050919050565b60006004548211611afc578282611af59190612461565b9050611b1f565b6004548310611b0e5760009050611b1f565b82600454611b1c9190612461565b90505b92915050565b600033905090565b6000611b8f826040518060400160405280602081526020017f5361666545524332303a206c6f772d6c6576656c2063616c6c206661696c65648152508573ffffffffffffffffffffffffffffffffffffffff16611c7e9092919063ffffffff16565b9050600081511480611bb1575080806020019051810190611bb09190612d37565b5b611bf0576040517f08c379a0000000000000000000000000000000000000000000000000000000008152600401611be790612dd6565b60405180910390fd5b505050565b611c78846323b872dd60e01b858585604051602401611c1693929190612df6565b604051602081830303815290604052907bffffffffffffffffffffffffffffffffffffffffffffffffffffffff19166020820180517bffffffffffffffffffffffffffffffffffffffffffffffffffffffff8381831617835250505050611b2d565b50505050565b6060611c8d8484600085611c96565b90509392505050565b606082471015611cdb576040517f08c379a0000000000000000000000000000000000000000000000000000000008152600401611cd290612e9f565b60405180910390fd5b6000808673ffffffffffffffffffffffffffffffffffffffff168587604051611d049190612f30565b60006040518083038185875af1925050503d8060008114611d41576040519150601f19603f3d011682016040523d82523d6000602084013e611d46565b606091505b5091509150611d5787838387611d63565b92505050949350505050565b60608315611dc5576000835103611dbd57611d7d85611dd8565b611dbc576040517f08c379a0000000000000000000000000000000000000000000000000000000008152600401611db390612f93565b60405180910390fd5b5b829050611dd0565b611dcf8383611dfb565b5b949350505050565b6000808273ffffffffffffffffffffffffffffffffffffffff163b119050919050565b600082511115611e0e5781518083602001fd5b806040517f08c379a0000000000000000000000000000000000000000000000000000000008152600401611e429190613008565b60405180910390fd5b600080fd5b6000819050919050565b611e6381611e50565b8114611e6e57600080fd5b50565b600081359050611e8081611e5a565b92915050565b600060208284031215611e9c57611e9b611e4b565b5b6000611eaa84828501611e71565b91505092915050565b600073ffffffffffffffffffffffffffffffffffffffff82169050919050565b6000611ede82611eb3565b9050919050565b611eee81611ed3565b8114611ef957600080fd5b50565b600081359050611f0b81611ee5565b92915050565b600060208284031215611f2757611f26611e4b565b5b6000611f3584828501611efc565b91505092915050565b611f4781611e50565b82525050565b6000604082019050611f626000830185611f3e565b611f6f6020830184611f3e565b9392505050565b6000602082019050611f8b6000830184611f3e565b92915050565b6000611f9c82611ed3565b9050919050565b611fac81611f91565b8114611fb757600080fd5b50565b600081359050611fc981611fa3565b92915050565b600080600080600080600080610100898b031215611ff057611fef611e4b565b5b6000611ffe8b828c01611fba565b985050602061200f8b828c01611fba565b97505060406120208b828c01611e71565b96505060606120318b828c01611e71565b95505060806120428b828c01611e71565b94505060a06120538b828c01611e71565b93505060c06120648b828c01611e71565b92505060e06120758b828c01611efc565b9150509295985092959890939650565b60008115159050919050565b61209a81612085565b82525050565b60006020820190506120b56000830184612091565b92915050565b6120c481611ed3565b82525050565b60006020820190506120df60008301846120bb565b92915050565b600080604083850312156120fc576120fb611e4b565b5b600061210a85828601611e71565b925050602061211b85828601611e71565b9150509250929050565b61212e81612085565b811461213957600080fd5b50565b60008135905061214b81612125565b92915050565b6000806040838503121561216857612167611e4b565b5b60006121768582860161213c565b925050602061218785828601611e71565b9150509250929050565b6000819050919050565b60006121b66121b16121ac84611eb3565b612191565b611eb3565b9050919050565b60006121c88261219b565b9050919050565b60006121da826121bd565b9050919050565b6121ea816121cf565b82525050565b600060208201905061220560008301846121e1565b92915050565b600082825260208201905092915050565b7f506f6f6c20686173207374617274656400000000000000000000000000000000600082015250565b600061225260108361220b565b915061225d8261221c565b602082019050919050565b6000602082019050818103600083015261228181612245565b9050919050565b7f416c726561647920696e697469616c697a656400000000000000000000000000600082015250565b60006122be60138361220b565b91506122c982612288565b602082019050919050565b600060208201905081810360008301526122ed816122b1565b9050919050565b7f4e6f7420666163746f7279000000000000000000000000000000000000000000600082015250565b600061232a600b8361220b565b9150612335826122f4565b602082019050919050565b600060208201905081810360008301526123598161231d565b9050919050565b600060ff82169050919050565b61237681612360565b811461238157600080fd5b50565b6000815190506123938161236d565b92915050565b6000602082840312156123af576123ae611e4b565b5b60006123bd84828501612384565b91505092915050565b7f4d75737420626520696e666572696f7220746f20333000000000000000000000600082015250565b60006123fc60168361220b565b9150612407826123c6565b602082019050919050565b6000602082019050818103600083015261242b816123ef565b9050919050565b7f4e487b7100000000000000000000000000000000000000000000000000000000600052601160045260246000fd5b600061246c82611e50565b915061247783611e50565b925082820390508181111561248f5761248e612432565b5b92915050565b60008160011c9050919050565b6000808291508390505b60018511156124ec578086048111156124c8576124c7612432565b5b60018516156124d75780820291505b80810290506124e585612495565b94506124ac565b94509492505050565b60008261250557600190506125c1565b8161251357600090506125c1565b8160018114612529576002811461253357612562565b60019150506125c1565b60ff84111561254557612544612432565b5b8360020a91508482111561255c5761255b612432565b5b506125c1565b5060208310610133831016604e8410600b84101617156125975782820a90508381111561259257612591612432565b5b6125c1565b6125a484848460016124a2565b925090508184048111156125bb576125ba612432565b5b81810290505b9392505050565b60006125d382611e50565b91506125de83611e50565b925061260b7fffffffffffffffffffffffffffffffffffffffffffffffffffffffffffffffff84846124f5565b905092915050565b7f416d6f756e7420746f20776974686472617720746f6f20686967680000000000600082015250565b6000612649601b8361220b565b915061265482612613565b602082019050919050565b600060208201905081810360008301526126788161263c565b9050919050565b600061268a82611e50565b915061269583611e50565b92508282026126a381611e50565b915082820484148315176126ba576126b9612432565b5b5092915050565b7f4e487b7100000000000000000000000000000000000000000000000000000000600052601260045260246000fd5b60006126fb82611e50565b915061270683611e50565b925082612716576127156126c1565b5b828204905092915050565b600061272c82611e50565b915061273783611e50565b925082820190508082111561274f5761274e612432565b5b92915050565b7f4e6577207374617274426c6f636b206d757374206265206c6f7765722074686160008201527f6e206e657720656e64426c6f636b000000000000000000000000000000000000602082015250565b60006127b1602e8361220b565b91506127bc82612755565b604082019050919050565b600060208201905081810360008301526127e0816127a4565b9050919050565b7f4e6577207374617274426c6f636b206d7573742062652068696768657220746860008201527f616e2063757272656e7420626c6f636b00000000000000000000000000000000602082015250565b600061284360308361220b565b915061284e826127e7565b604082019050919050565b6000602082019050818103600083015261287281612836565b9050919050565b7f4f7065726174696f6e733a2043616e6e6f74207265636f76657220726577617260008201527f6420746f6b656e00000000000000000000000000000000000000000000000000602082015250565b60006128d560278361220b565b91506128e082612879565b604082019050919050565b60006020820190508181036000830152612904816128c8565b9050919050565b60008151905061291a81611e5a565b92915050565b60006020828403121561293657612935611e4b565b5b60006129448482850161290b565b91505092915050565b7f4f7065726174696f6e733a2043616e6e6f74207265636f766572207a65726f2060008201527f62616c616e636500000000000000000000000000000000000000000000000000602082015250565b60006129a960278361220b565b91506129b48261294d565b604082019050919050565b600060208201905081810360008301526129d88161299c565b9050919050565b7f4d75737420626520736574000000000000000000000000000000000000000000600082015250565b6000612a15600b8361220b565b9150612a20826129df565b602082019050919050565b60006020820190508181036000830152612a4481612a08565b9050919050565b7f4e6577206c696d6974206d757374206265206869676865720000000000000000600082015250565b6000612a8160188361220b565b9150612a8c82612a4b565b602082019050919050565b60006020820190508181036000830152612ab081612a74565b9050919050565b7f4465706f7369743a20416d6f756e742061626f7665206c696d69740000000000600082015250565b6000612aed601b8361220b565b9150612af882612ab7565b602082019050919050565b60006020820190508181036000830152612b1c81612ae0565b9050919050565b7f4f776e61626c653a206e6577206f776e657220697320746865207a65726f206160008201527f6464726573730000000000000000000000000000000000000000000000000000602082015250565b6000612b7f60268361220b565b9150612b8a82612b23565b604082019050919050565b60006020820190508181036000830152612bae81612b72565b9050919050565b7f4f776e61626c653a2063616c6c6572206973206e6f7420746865206f776e6572600082015250565b6000612beb60208361220b565b9150612bf682612bb5565b602082019050919050565b60006020820190508181036000830152612c1a81612bde565b9050919050565b7f5265656e7472616e637947756172643a207265656e7472616e742063616c6c00600082015250565b6000612c57601f8361220b565b9150612c6282612c21565b602082019050919050565b60006020820190508181036000830152612c8681612c4a565b9050919050565b7f7265776172647320656d70747900000000000000000000000000000000000000600082015250565b6000612cc3600d8361220b565b9150612cce82612c8d565b602082019050919050565b60006020820190508181036000830152612cf281612cb6565b9050919050565b6000604082019050612d0e60008301856120bb565b612d1b6020830184611f3e565b9392505050565b600081519050612d3181612125565b92915050565b600060208284031215612d4d57612d4c611e4b565b5b6000612d5b84828501612d22565b91505092915050565b7f5361666545524332303a204552433230206f7065726174696f6e20646964206e60008201527f6f74207375636365656400000000000000000000000000000000000000000000602082015250565b6000612dc0602a8361220b565b9150612dcb82612d64565b604082019050919050565b60006020820190508181036000830152612def81612db3565b9050919050565b6000606082019050612e0b60008301866120bb565b612e1860208301856120bb565b612e256040830184611f3e565b949350505050565b7f416464726573733a20696e73756666696369656e742062616c616e636520666f60008201527f722063616c6c0000000000000000000000000000000000000000000000000000602082015250565b6000612e8960268361220b565b9150612e9482612e2d565b604082019050919050565b60006020820190508181036000830152612eb881612e7c565b9050919050565b600081519050919050565b600081905092915050565b60005b83811015612ef3578082015181840152602081019050612ed8565b60008484015250505050565b6000612f0a82612ebf565b612f148185612eca565b9350612f24818560208601612ed5565b80840191505092915050565b6000612f3c8284612eff565b915081905092915050565b7f416464726573733a2063616c6c20746f206e6f6e2d636f6e7472616374000000600082015250565b6000612f7d601d8361220b565b9150612f8882612f47565b602082019050919050565b60006020820190508181036000830152612fac81612f70565b9050919050565b600081519050919050565b6000601f19601f8301169050919050565b6000612fda82612fb3565b612fe4818561220b565b9350612ff4818560208601612ed5565b612ffd81612fbe565b840191505092915050565b600060208201905081810360008301526130228184612fcf565b90509291505056fea2646970667358221220cb487777a23c463305c7c8096b486fc683d1b507f6cfdaa9404eab46303feff064736f6c63430008110033",
  "linkReferences": {},
  "deployedLinkReferences": {}
}